:020000040800F2
:1000000000180020252E0008BD290008BF2900087F
:1000100000000000000000000000000000000000E0
:10002000000000000000000000000000C1290008DE
:100030000000000000000000C3290008C5290008D6
:10004000A52E0008A52E0008A52E0008A52E000844
:10005000A52E0008A52E0008A52E0008A52E000834
:10006000A52E0008A52E0008A52E0008A52E000824
:10007000A52E0008A52E0008A52E0008A52E000814
:10008000A52E00080000000000000000A52E0008BA
:1000900000000000A52E0008A52E0008A52E0008CF
:1000A00000000000A52E0008A52E0008A52E0008BF
:1000B000A52E000800000000A52E0008CD2900088C
:1000C00010B5064C2378002B07D1054B002B02D02E
:1000D000044800E000BF0123237010BD4001002050
:1000E00000000000002F0008044B10B5002B03D0C7
:1000F0000349044800E000BF10BDC04600000000F6
:1001000044010020002F0008002243088B4274D3D2
:1001100003098B425FD3030A8B4244D3030B8B4208
:1001200028D3030C8B420DD3FF22090212BA030C11
:100130008B4202D31212090265D0030B8B4219D3F2
:1001400000E0090AC30B8B4201D3CB03C01A524112
:10015000830B8B4201D38B03C01A5241430B8B425A
:1001600001D34B03C01A5241030B8B4201D30B0343
:10017000C01A5241C30A8B4201D3CB02C01A52416A
:10018000830A8B4201D38B02C01A5241430A8B422D
:1001900001D34B02C01A5241030A8B4201D30B0216
:1001A000C01A5241CDD2C3098B4201D3CB01C01A30
:1001B000524183098B4201D38B01C01A524143093A
:1001C0008B4201D34B01C01A524103098B4201D328
:1001D0000B01C01A5241C3088B4201D3CB00C01A95
:1001E000524183088B4201D38B00C01A524143080D
:1001F0008B4201D34B00C01A5241411A00D2014632
:10020000524110467047FFE701B5002000F006F8A4
:1002100002BDC0460029F7D076E770477047C04658
:1002200010B5040001F040FDFA218900FFF76CFFD2
:1002300000F072F8012000222100404200F032F864
:10024000002010BD10B5064A136810210B4313603F
:100250000020FFF7E5FF02F099FB002010BDC0462B
:1002600000200240024A1368013313607047C04601
:1002700074010020014B18687047C04674010020CB
:1002800030B583B00190FFF7F5FF0500019C631CBA
:1002900000D00134FFF7EEFF401BA042FAD303B0B9
:1002A00030BD000070B5002811DB8408134DC03448
:1002B000A400625903231840C000FC331E0086408E
:1002C000B24389010B4083401343635170BDC0B2F8
:1002D0000F220240083A920806329200084BD318C7
:1002E0005D6803242040C000FF2214008440A54321
:1002F00089010A4082402A435A60E7E700E100E0B2
:1003000000ED00E01F2318401E3B8340014A1360AC
:100310007047C04600E100E001380A4B98420FD810
:10032000094A50600948036A1B021B0AC0210906DA
:100330000B43036200239360073313600020704770
:100340000120FCE7FFFFFF0010E000E000ED00E00F
:1003500070B5041E58D0EA23FF33C35C002B05D0D0
:10036000EA23FF330322E254002218E0E933FF338B
:100370000022C25402F094FBF2E7D100891A8B00EC
:10038000E318190029310120087001390A7018009A
:100390002B300021017059639963D9630132606881
:1003A0009042EAD8002214E0D100891A8B00E318A9
:1003B0001D000A35FF3500212970013D2A700335E3
:1003C000297009352960043529601D33FF33196010
:1003D00001329042E8D8402301222168CA5200220B
:1003E0002168CA524421206842520C31206842528E
:1003F000064A2168CA5200221C3BE2540122EA2329
:10040000FF33E254002070BD0120FCE700BFFFFF76
:10041000016858228B5A034803439BB28B52002039
:100420007047C0460080FFFFF4235B00C35C012BD4
:1004300013D0F4235B000122C25400290AD19D3B52
:10044000FF3B7F320168CA52F4235B000022C25492
:10045000002070472423C154F6E70220F9E700008A
:10046000F0B54DB2002D65DB7F240C40E600361B55
:10047000B4000934FF3404197F2631402170ED0F98
:100480006570E260E370F4235B00C35C012B00D174
:1004900075E1F4235B000122C254E378012B00D103
:1004A00074E0002B4ED0022B59D0032B61D0227860
:1004B000930001688C4663441988B24D29400A4371
:1004C000B1490A431A80A37A002B00D0B5E06378C3
:1004D000002B00D167E0A28805685023EB5A2178F1
:1004E000C9005B185B198021C9008C466344012157
:1004F0008A431A8023789B000268944663441A88D2
:10050000510604D59F490A40A0490A431A8022781F
:10051000920003689C46624413889D490B40202149
:100520004B4099490B431380F4235B000022C254D3
:100530000020F0BD7F240C40E600361BB4002834B8
:10054000041999E723789B000268944663441A884B
:1005500090491140802292000A431A80A7E723782D
:100560009B000268944663441A888A490A401A80AC
:100570009DE723789B000268944663441A88854966
:100580001140C022D2000A431A8090E723789B00D2
:100590000268944663441A887E4911408022D20042
:1005A0000A431A8083E7A28805685026AB5B21784E
:1005B000C9005B185B1978498C46634401218A4362
:1005C0001A8001688B5B2278D2009B185B18734AF3
:1005D00094466344E1683E2926D94A0992B2C90685
:1005E00001D1013A92B2920292B26D490A431A8045
:1005F00023789B000268944663441A88510404D50A
:1006000060490A4067490A431A8023789B000268C0
:10061000944663441988644A1140C02292015140B3
:10062000594A0A431A807FE74A0892B2C90701D59E
:10063000013292B292021A80DAE723789B000268B4
:10064000944663441A8859491140594A0A431A800A
:10065000E28805685027EB5B2178C9005B185B19BD
:100660008021C9008C4663440126B2431A80228946
:100670000568EB5B2178C9005B185B1946498C461D
:100680006344B2431A806378002B3DD123789B00EA
:100690000268944663441A88510404D539490A40D3
:1006A00040490A431A8023789B00026894466344B9
:1006B0001A88510604D533490A4034490A431A803E
:1006C00023789B000268944663441A882D491140A0
:1006D0002E4A0A431A802178890003689C466144A7
:1006E0000B88314A1A40C0239B015340264A1343CA
:1006F0000B8023789B0001688C4663441988244C46
:1007000021400A431A800FE723789B000268944631
:1007100063441A88510404D51A490A4021490A43FE
:100720001A8023789B000268944663441A88510615
:1007300004D514490A4015490A431A8023789B00BE
:100740000268944663441A880E491140154A0A43C8
:100750001A802178890003689C4661440B880C4A02
:100760001340094A13430B8023789B0001688C4691
:10077000634419880C4C21400A431A80D4E60220B5
:10078000D7E6C0460F0F00008080FFFFC080FFFF4C
:10079000BF8FFFFF8F89FFFF0404000006040000E5
:1007A0000080FFFF80C0FFFF8FBFFFFF0F0E000024
:1007B0008081FFFF10B54AB2002A3ADB7F230B404D
:1007C000DC00E41AA3000933FF33C3187F2421405F
:1007D0001970D20F5A70F4225200825C012A00D1A3
:1007E000C1E0F4225200012181549A7A002A41D1B9
:1007F0005A78002A25D01A78920001688C46624403
:1008000011884C0604D5594C2140594C2143118084
:100810001B789B000268944663441A88554911402E
:10082000554A0A431A80F4235B000022C254002078
:1008300010BD7F230B40DC00E41AA3002833C3184B
:10084000C4E71A78920001688C46624411884C040F
:1008500004D5464C2140494C214311801B789B0014
:100860000268944663441A8845491140424A0A4343
:100870001A80D8E75A78002A3AD11A78920001688B
:100880008C46624411884C0404D5384C21403B4CC2
:10089000214311801A78920001688C4662441188C5
:1008A0004C0604D5314C2140314C214311801A783B
:1008B000920001688C46624411882C4C0C402C49F3
:1008C000214311801C78A400026894466444228865
:1008D0002B490A4028490A4322801B789B00026862
:1008E000944663441A88234C2240114319809AE7A6
:1008F0001A78920001688C46624411884C0404D531
:100900001A4C21401D4C214311801A789200016835
:100910008C46624411884C0604D5144C2140144C7A
:10092000214311801A78920001688C466244118834
:100930000E4C0C401149214311801C78A400026820
:100940009446644422880B490A400B490A4322809A
:100950001B789B000268944663441A88084C224026
:10096000114319805FE7022062E7C0460F0F0000C5
:10097000C080FFFFBF8FFFFF8080FFFF80C0FFFFB1
:100980008FBFFFFF70B57F242140CD006D1AAC00F2
:10099000041925001935FF352A6022001D32FF3267
:1009A0001360083500222A60173D2A7022000932A0
:1009B000FF3211701534FF342268934240D9CD00C4
:1009C0006D1AAC0004191D34FF349B1A2360CC004F
:1009D000641AA3001C00C3181333FF331B78002BC9
:1009E00041D105685033EB5A04190934FF34247897
:1009F000E4001B195B195E4CA44663443E2A29D9C6
:100A00005409A4B2D20601D1013CA4B2A402A4B2FA
:100A1000584A14431C800368CA00511A8A0080187F
:100A20000930FF30027892009B181988524A114011
:100A3000C02292015140514A0A431A80002070BDE1
:100A4000CC00641AA20082181D32FF320024146008
:100A50001A00BCE75408A4B2D20701D50134A4B2ED
:100A6000A4021C80D7E7CC00641AA3001C00C318A2
:100A70000A33FF331B78002B23D105685033EB5A20
:100A800004190934FF342478E4001B195B193C4C29
:100A9000A44663443E2A0BD95409A4B2D50601D119
:100AA000013CA4B2A402A4B2324D2C431C800AE043
:100AB0005408A4B2D50701D50134A4B2A4021C8005
:100AC00001E0012B24D0CC00641AA3001C00C31841
:100AD0000A33FF331B78002B35D105685033EB5AAE
:100AE00004190934FF342478E4001B195B19204CE5
:100AF000A44663443E2A1DD95409A4B2D20601D1AA
:100B0000013CA4B2A402A4B21A4A14431C8082E796
:100B100005684F33EB5ACE00761AB4000419093435
:100B2000FF342478E4001B195B19154CA446634478
:100B30001A80C8E75408A4B2D20701D50134A4B280
:100B4000A4021C8067E7012B00D064E705684F33DF
:100B5000EB5ACE00761AB40004190934FF34247815
:100B6000E4001B195B19024CA44663441A8052E747
:100B7000060400000080FFFF8FBFFFFF8080FFFFA3
:100B80000204000010B5F4235B00C35C012B4DD0C0
:100B9000F4235B000122C2544CB2002C20DBCA00BB
:100BA000521A93000933FF33C31801229A707E3220
:100BB00011401970E40F5C7000291AD18900036894
:100BC0009C4661440A881A4B1A401A4B5A401A4BE9
:100BD00013430B80F4235B000022C254002010BD9D
:100BE0006A3BFF3B0B40DA00D21A93002833C3184C
:100BF000DBE7002C0CD0890003689C4661440B881D
:100C00000E4A1340102253400B4A13430B80E1E776
:100C1000890003689C4661440A88094B1A40802376
:100C20005B015A40044B13430B80D3E70220D6E705
:100C3000BFBFFFFF101000008080FFFFBF8FFFFFCE
:100C40008FBFFFFF10B54AB2002A38DBCC00641A10
:100C5000A3000933FF33C31800249C707F34214064
:100C60001970D20F5A70F4225200825C012A4AD0C5
:100C7000F4225200012181545A78002A27D01A7890
:100C8000920001688C46624411884C0604D51F4CC2
:100C900021401F4C214311801A78920003689C4622
:100CA000624413881B490B4030214B401A490B43C7
:100CB0001380F4235B000022C254002010BD7F2368
:100CC0000B40DC00E41AA3002833C318C4E71A78E9
:100CD000920001688C46624411884C0404D50B4C88
:100CE00021400E4C214311801B789B0002689446E2
:100CF000634419880A4A1140C02292015140064AB1
:100D00000A431A80D5E70220D8E7C0460F0F00003B
:100D1000C080FFFFBF8FFFFF8080FFFF80C0FFFF0D
:100D20008FBFFFFF10B501335B0812188020C00091
:100D30008446624407E008784C7824020443148017
:100D40000231013B0232002BF5D110BDF8B5050090
:100D50007F240C40E000001B810069188A63CB638C
:100D600000220A640A00293201201070013A14702E
:100D70004F6BBB4233D9DB1BCB63E200121B9300EA
:100D80001A00EB1832331B78002B30D02868E200B1
:100D9000121B9300EB1828331B789A00825A5206D4
:100DA00074D5E600361BB200AA1829321278002A40
:100DB0003BD15032825ADB00D3181818614B9C4645
:100DC00060443E2F28D97B099BB2FA0601D1013B32
:100DD0009BB29B029BB25C4A1343038027E0E10075
:100DE000091B8A00AA180021D1631F00C5E7BFB202
:100DF000AE18B28D3B00B16B2868FFF793FF2A68ED
:100E00005023D35A28363178C9005B189B184F4AB3
:100E1000944663441F8082E07B089BB2FA0701D5A9
:100E200001339BB29B02038001E0012A24D0E2003F
:100E3000121B9300EB181A8EBBB2E100091B8E0047
:100E4000AE19B16B2868FFF76DFF29363378002B98
:100E500055D0012B63D1E200121B9300EB1828330D
:100E60001B789B002A68944663441A8838491140CD
:100E7000384A0A431A8052E04F32825ADB00D318B4
:100E80001818304B9C4660440780D0E7E600361BBC
:100E9000B200AA1829321278002A1ED15032825A82
:100EA000DB00D3181818294B9C4660443E2F0BD901
:100EB0007B099BB2FA0601D1013B9BB29B029BB21C
:100EC000214A134303800AE07B089BB2FA0701D54D
:100ED00001339BB29B02038001E0012A05D0E200AE
:100EE000121B9300EB18DA8DA6E74F32825ADB0013
:100EF000D3181818154B9C4660440780EFE7E200B2
:100F0000121B9300EB1828331B789B002A68944629
:100F100063441A880E4911400F4A0A431A802A680E
:100F2000E1000C1BA300ED1828352B789B00D2188C
:100F300013880A490B4030214B4009490B43138069
:100F40000020F8BD060400000080FFFF020400003E
:100F50000F0F000080C0FFFFC080FFFFBF8FFFFFAB
:100F60008080FFFF30B55D0812188020C0008446E5
:100F7000624406E014880C70240A4C70013D023271
:100F80000231002DF6D1DB0701D513880B7030BD7F
:100F9000F0B583B0050001AB00221A802868442315
:100FA000C35A9BB26A46D3801BB2002B00DB39E2E6
:100FB0006B46DC880F231C4000D0B5E06B4606333F
:100FC0001B88DB064BD5028801AB1A801B881B05EA
:100FD00075D401AB1B881BB2002BDFDA0388CA4A29
:100FE0001340038028685023C35A84225200AA5C0D
:100FF000D2009B181B18C54A944663441B889B0566
:101000009B0D2A000932FF329361002B00D077E05C
:101010000021280001F06EFD2B6850229A5A9A1880
:10102000BA4B9C4662442B000933FF33D9683E29F2
:1010300071D94B099BB2C90601D1013B9BB29B02FE
:101040009BB2B3490B43138029680A88B14B1A40FD
:10105000C0239B015A40B04B13430B809EE703888B
:10106000AE4A1340038029685023CB5A2822AA5C39
:10107000D2009B185B18AA4A944663441B889B05C0
:101080009B0D2B64AA6B94466344AB63002128003C
:1010900001F03FFD2423EB5C002B00D17EE7EB6BDE
:1010A000002B00D07AE72422AB5C802149420B431D
:1010B000DBB2CC31286843520023AB546EE7502397
:1010C000C35A84225200AA5CD2009B181B188F4A74
:1010D000944663441B889B059B0D2A000932FF320E
:1010E00093612900ED31FF319288FFF73BFF2A68B9
:1010F000138885490B401380280001F0F1FC4DE76F
:10110000140092882169FFF72DFF2369A269944694
:10111000634423617CE74B089BB2C90701D50133C7
:101120009BB29B0213808FE7A700C019028801AB16
:101130001A801B881BB2002B31DB01AB1B881B06FE
:1011400000D42BE72B689C4667443B88734A1340C6
:101150003B80E200121B93001A00EB1832331B781D
:10116000002B00D0E2E028685033C35AAA181100BF
:1011700028310978C9005B181B1869498C466344FB
:101180001B889B059B0D136400D1FDE0E200121B40
:10119000910069188A8D896BFFF7C4FDF4E05A4B02
:1011A0001A400280E200121B93001A00EB1813335E
:1011B000FF331B78002B1DD128685033C35A110010
:1011C000AA180932FF321278D2009B181B184F4A16
:1011D000944663441E88B605B60D34D06B181A00C9
:1011E0000D32FF3212881933FF3319683300FFF7CD
:1011F000B9FE28E02868E200121B9300EB180933BF
:10120000FF331B789A00825A520456D55022825AD4
:10121000DB00D3181B18424A944663441E88B60567
:10122000B60D3BD1E200121B9300EB180933FF33DC
:101230001B789B002A68944663441A8839491140F8
:10124000394A0A431A803100E200121B9300EB185E
:1012500018002130FF300268921902601A0019321A
:10126000FF3210688446664416601D33FF331B68E6
:10127000002B08D0E200121B900028181530FF3018
:101280000268914234D2E200121B9300EB1809333A
:10129000FF331978280001F02DFC4EE7E200121B05
:1012A0009300EB181A000F32FF3212881933FF3304
:1012B00019683300FFF756FEB4E75022825ADB006C
:1012C000D3181B18114A944663441E88B605B60D00
:1012D000A8D0E200121B9300EB181A001132FF3263
:1012E00012881933FF3319683300FFF73BFE99E783
:1012F000E100091B8A00AA180932FF321178320076
:101300002800FFF73FFB18E78F0F000006040000DE
:101310000080FFFF8FBFFFFF8080FFFF0F8FFFFF69
:10132000020400000F0F0000C080FFFF2868E200E9
:10133000121B9300EB1828331B789A00825A52062E
:101340004DD55022825ADB00D3181B18374A9446D9
:1013500063441B889B059B0DE100091B8A0011005B
:10136000AA181364002B34D1E200121B9300EB186F
:1013700028331B789B002A68944663441A882C49BA
:1013800011402C4A0A431A8028685023C25AE100AF
:10139000091B8B00EB18190028310978C900521875
:1013A000121822498C46624412889205920D1A64E2
:1013B000996B8C4662449A63DB6B002B28D1E30067
:1013C0001C1BA300EB1828331978280001F0A1FB9F
:1013D000E4E56918CA8D896BFFF7A4FCC4E75022C5
:1013E000825ADB00D3181B18134A944663441B88A7
:1013F0009B059B0DE100091B8A001100AA181364CC
:10140000002BB1D069180A8E896BFFF78BFCABE714
:10141000E1000C1BA1006918283109782800FFF7AA
:1014200095FCBBE5002003B0F0BDC04602040000FF
:101430000F0F000080C0FFFF0604000070B504001D
:1014400044230268D35A1BB2002B46DB2368442294
:101450009A5A520544D4236844229A5A520404D515
:1014600044215A5A344802405A52236844229A5A14
:10147000920404D544215A5A304802405A522368F3
:1014800044229A5AD20438D4236844229A5A120524
:1014900013D54422995A2A48014099522068402382
:1014A000C15A08252943C1522068C15A042529433D
:1014B000C15223689B5ADB0431D5236844229A5ACF
:1014C000920530D4236844229A5AD20504D5442187
:1014D0005A5A1C4802405A5270BDFFF759FDB5E7F1
:1014E00044215A5A184802405A52200001F025FB64
:1014F00000212000FEF798FFADE74022995A042012
:1015000081439952114B21688B52200001F038FB26
:10151000216844228B5A0E4803408B52B4E72000C6
:1015200001F01CFBC9E744215A5A0A4802405A52AA
:10153000200001F0FBFAC5E7FFBFFFFFFFDFFFFF61
:10154000FFF7FFFFFFFEFFFFFFFBFFFF00BDFFFFF9
:10155000FFEFFFFFFFFDFFFF10B50C060FD57F2447
:101560002140CC00611A8C0028340019002A0DD0CB
:1015700001228272C3801B0C0381002010BDCC00AD
:10158000611A8C000934FF340019EFE782728380FE
:10159000F3E7000070B582B004000368DB072BD5C9
:1015A000B34B5A680C231340042B1DD0B04B5A6820
:1015B0000C231340082B0ED06368012B41D0002B65
:1015C00056D1AB4B1A68AB490A401A601A68AA494F
:1015D0000A401A603BE0A64B5B68C02252021340EF
:1015E000802252029342E7D1A14B1B689B0303D593
:1015F0006368002B00D139E223689B0778D59C4BA8
:101600005B680C221A4262D0994B5A680C23134033
:10161000082B53D0E368002B00D18BE0944A136869
:1016200001210B431360FEF725FE0500904B1B685C
:101630009B0776D4FEF71EFE401B0228F6D9032036
:1016400017E28B4A116880235B020B4313606368C7
:10165000002B25D0FEF70EFE0500854B1B689B0373
:10166000CAD4FEF707FE401B6428F6D9032000E227
:10167000052B09D07E4B1A687E490A401A601A6809
:101680007D490A401A60E2E7794B19688022D2024C
:101690000A431A601968802252020A431A60D6E788
:1016A000FEF7E8FD0500724B1B689B03A4D5FEF70F
:1016B000E1FD401B6428F6D90320DAE16C4B5B683E
:1016C000C02252021340802212029342A2D1684BE0
:1016D0001B689B0704D5E368012B01D00120C8E1FA
:1016E00063490B68F82293432269D20013430B60CD
:1016F00023681B0744D5E369002B2ED05C4A536A4C
:1017000001210B435362FEF7B5FD0500584B5B6AA0
:101710009B0735D4FEF7AEFD401B0228F6D9032007
:10172000A7E153490B68F82293432269D20013437F
:101730000B60DDE74E4A136801218B431360FEF70F
:1017400099FD05004A4B1B689B07D1D5FEF792FD1A
:10175000401B0228F6D903208BE1454A536A012138
:101760008B435362FEF786FD0500414B5B6A9B0786
:1017700006D5FEF77FFD401B0228F6D9032078E14D
:1017800023685B0700D47FE0394BDB69DB001DD4A5
:10179000374AD169802040050143D161D3690340B4
:1017A0000193019B0125354B1B68DB0510D5A36810
:1017B000012B21D0002B36D12D4B1A6A01218A43EF
:1017C0001A621A6A03318A431A621AE00025EAE7AC
:1017D0002A4A116880235B000B431360FEF74AFD21
:1017E0000600264B1B68DB05E1D4FEF743FD801B9A
:1017F0006428F6D903203CE11D4A136A01210B43FA
:101800001362A368002B24D0FEF734FD0600184BAA
:101810001B6A9B0736D4FEF72DFD801B184B9842A0
:10182000F5D9032025E1052B09D0114B1A6A0121B6
:101830008A431A621A6A03318A431A62E1E70C4B3F
:101840001A6A04210A431A621A6A03390A431A629D
:10185000D7E7FEF70FFD0600054B1B6A9B0711D566
:10186000FEF708FD801B064B9842F5D9032000E1E6
:1018700000100240FFFFFEFFFFFFFBFF0070004073
:1018800088130000012D3AD02368DB0610D5636968
:10189000012B3AD0053358D1784A536B04218B433E
:1018A0005363536BF4318B43A169C9000B435363FA
:1018B00023689B0600D482E0704B5A680C231340C7
:1018C0000C2B60D06D4B5A680C231340082B53D05F
:1018D000236A002B60D0694A516B80235B020B4363
:1018E0005363FEF7C7FC0500644B5B6BDB0366D4F8
:1018F000FEF7C0FC401B0228F6D90320B9E05F4A7E
:10190000D3695F490B40D361BEE75C4B5A6B04213E
:101910000A435A635A6B03390A435A63FEF7AAFC17
:101920000500564B5B6B9B0706D4FEF7A3FC401BE0
:101930000228F6D903209CE050494B6BF8229343D0
:10194000A269D20013434B63B2E74C4B5A6B04219C
:101950000A435A635A6B03398A435A63FEF78AFC77
:101960000500464B5B6B9B07A2D5FEF783FC401B33
:101970000228F6D903207CE0404B5B68C02252026B
:1019800013409342A4D13D4B5B6BDB0317D5236A15
:10199000012B14D001206CE0384A536B39490B40BD
:1019A0005363FEF767FC0500344B5B6BDB0306D526
:1019B000FEF760FC401B0228F6D9032059E0636A59
:1019C000002B55D02D4A51680C220A40082A52D0CB
:1019D000022B12D0294A13682B490B401360FEF7E3
:1019E00049FC0400254B1B689B013DD5FEF742FCDA
:1019F000001B0228F6D903203BE0204A1368224945
:101A00000B401360FEF736FC05001C4B1B689B0166
:101A100006D5FEF72FFC401B0228F6D9032028E04C
:101A2000164BDA6A0F218A43216B0A43DA625A683D
:101A300016490A40E16AA06A01430A435A601968DC
:101A4000802252040A431A60FEF714FC04000B4B78
:101A50001B689B0106D4FEF70DFC001B0228F6D97B
:101A6000032006E0002004E0002002E0012000E066
:101A7000002002B070BD0120FBE7C046001002400C
:101A8000FFFFFFEFFFFFFEFFFFFFFFFEFF7FC2FF35
:101A900030B589B004AA1F4B180032C832C21100F9
:101AA00002680A606A46103313CB13C21B681360C6
:101AB000194B5A680C231340082B04D00C2B26D04A
:101AC000164809B030BD910C0F23194004A8445C9E
:101AD0001149C96A0B406946C95CC0235B021A40C0
:101AE00080235B029A4208D0C0235B029A4209D04D
:101AF0000A48FEF709FB6043E3E70848FEF704FBEA
:101B00006043DEE70648FEF7FFFA6043D9E7044882
:101B1000D7E7C046182F00080010024000127A00D4
:101B2000006CDC0270B505000C00594B1A680123EB
:101B300013408B420BD256490B6801229343234337
:101B40000B600B681A40A24201D0012070BD2B68C7
:101B50009B0706D54F4A5368F0218B43A9680B4376
:101B600053602B68DB0763D56B68012B09D0022B10
:101B700028D0032B2CD0474A1268920705D40120A5
:101B8000E4E7444A126892037FD542494A68032039
:101B9000824313434B60FEF76DFB06006B68012B1D
:101BA0001CD0022B28D0032B34D03A4B5B680C227C
:101BB0001A423DD0FEF75EFB801B374B9842F4D9AA
:101BC0000320C3E7334A12689201DED40120BDE747
:101BD000304A526BD203D8D40120B7E72D4B5A6854
:101BE0000C231340042B23D0FEF744FB801B2A4B0D
:101BF0009842F3D90320A9E7264B5A680C231340D7
:101C0000082B15D0FEF736FB801B234B9842F3D9E7
:101C100003209BE71F4B5A680C2313400C2B07D063
:101C2000FEF728FB801B1C4B9842F3D903208DE75D
:101C3000174B1A6801231340A3420BD914490B68B0
:101C40000122934323430B600B681A40A24201D048
:101C500001207BE72B685B0706D50E4A53680F49C6
:101C60000B40E9680B435360FFF712FF094B5A68BA
:101C700012090F2313400A4AD35CD840094B18605D
:101C80000020FEF7CDFA002060E701205EE7C046A5
:101C9000002002400010024088130000FFF8FFFF00
:101CA000982F0008EC000020014B18687047C046D0
:101CB000EC00002070B582B004000368DB0335D56A
:101CC000464BDB69DB005CD4444AD1698020400587
:101CD0000143D161D36903400193019B0125404B2E
:101CE0001B68DB054FD53D4B1B6AC0229200134099
:101CF00013D061680A409A420FD0384B186A394AAB
:101D000002401E6A8021490231431962196A364E27
:101D1000314019621A62C30749D4304A136A314903
:101D20000B4061680B431362012D4FD02368DB0722
:101D300006D52A4A136B03218B43A1680B43136317
:101D400023689B0606D5254A136B10218B43E16857
:101D50000B43136323689B0306D5204A136B802132
:101D60008B4361690B43136323685B0533D51B4ABF
:101D7000136B40218B4321690B431363002002B096
:101D800070BD0025ABE7164A116880235B000B434A
:101D90001360FEF76FFA0600114B1B68DB05A2D437
:101DA000FEF768FA801B6428F6D90320E7E7FEF700
:101DB00061FA0600094B1B6A9B07AED4FEF75AFA7C
:101DC000801B0A4B9842F5D90320D8E7D36908490C
:101DD0000B40D361AAE70020D1E7C04600100240C3
:101DE00000700040FFFCFFFFFFFFFEFF88130000B4
:101DF000FFFFFFEF22230380004870470000002010
:101E000086239B00C35800221A73002070470000ED
:101E10000A230380014824307047C0460000002098
:101E200010B586239B00C4580A78B93BFF3B13408A
:101E300024D0202B54D14B78032B10D007D90A2B58
:101E400013D00B2B16D18B782360002049E0022B96
:101E500010D1211D012200F09CFC002041E0012254
:101E6000210000F096FC00203BE04B881B0A6360D9
:101E7000002036E000F000FA022032E04B780A2B16
:101E800023D00B2B28D0062B01D0002029E04B8833
:101E90001B0A222B07D0212B0ED00021002200F09C
:101EA00078FC00201DE0CB881A1C752B00D9752208
:101EB00092B20C493031F2E7CB881A1C092B00D9B9
:101EC000092292B208492831E9E7210008310122AC
:101ED00000F05FFC002004E08B78A360002000E0AD
:101EE000002010BD000000208000002010B504007C
:101EF000812100F0A6FE86239B00E058002805D033
:101F000000F0F4FE86239B000022E250002010BD6A
:101F100010B5040009230322812100F086FE102061
:101F200000F0E0FE86239B00E050002803D0002351
:101F30000373002010BD0120FCE770B58624A400C7
:101F400005591C3C045D032C01D0002070BD2B7B87
:101F5000002BFAD101332B7313000A00812100F00A
:101F6000AEFEF2E710B5002816D085239B00C358BB
:101F7000002B03D085239B000024C450002902D0ED
:101F800084239B00C150FE235B000121C1540270D9
:101F900000F00CFE002010BD0220FCE7002904D058
:101FA00085239B00C150002070470220FCE710B53C
:101FB00000F032FE002010BD10B585239B00C358F1
:101FC000002B07D01B689847002801D1002010BDC6
:101FD0000220FCE70220FAE710B585239B00C358D6
:101FE0005B689847002010BD70B5040082239B00F9
:101FF000C518280000F02CF9FA235B000122E250FA
:10200000124BE25A163BE2501033E15CEA3BFF3BD5
:102010000B40012B0FD0002B07D0022B10D07F23B9
:102020009943200000F016FE03E02900200000F094
:10203000B3FA002070BD2900200000F0D1FAF8E7C3
:102040002900200000F0EBFAF3E7C0460E02000082
:1020500010B504001300002929D1FA225200825839
:10206000032A01D0002010BD421DFF329168D268C2
:1020700091420FD885239B00C3581B69002B05D0C4
:10208000FE225200825C032A00D19847200000F013
:102090009EFBE7E7891A0530FF3081608A4200D94C
:1020A0000A0092B21900200000F089FBDAE78523CC
:1020B0009B00C3589B69002BD4D0FE225200825C47
:1020C000032ACFD19847CDE770B50400130000294B
:1020D0004ED1FA2252008258022A06D080239B0059
:1020E000E35C012B3FD0002070BDC269056AAA42A3
:1020F0001ED8866929003000FEF78CF8002906D129
:10210000B54204D8FC235B00E3589E421DD38523CF
:102110009B00E358DB68002B06D0FE225200A25C35
:10212000032A01D120009847200000F05CFBD5E78E
:10213000521BC26192B2190000F039FB0023002249
:102140000021200000F0C4FDC8E70022200000F0BC
:102150002EFBFC235B000022E25000230021200024
:1021600000F0B6FDBAE780239B000022E254BAE7F4
:1021700085239B00C3585B69002BB4D0FE2252001C
:10218000825C032AAFD19847ADE770B504004023C5
:102190000022002100F049FD402588235B00E55026
:1021A000D03B00228021200000F03FFD2562FE236D
:1021B0005B000122E2541C33E358002B06D0852338
:1021C0009B00E3585B68217920009847002070BD90
:1021D000017400207047FE235B00C15CFE22FF32C9
:1021E0008154FA3AFF3AC25400207047FE23FF336D
:1021F000C25C013BC2540020704710B5FE235B0057
:10220000C35C032B01D0002010BD85239B00C35865
:10221000DB69002BF7D09847F5E70300002002E0C8
:102220000130C0B201331A78002AF9D1704710B5D5
:1022300004004B88012B0AD181239B000122C2504C
:102240001033C3589B689847200000F0C0FA10BDB7
:102250000B7803704B7843708B78CA7812029B1806
:1022600043800B794A7912029B1883808B79CA7953
:1022700012029B18C380704710B50400802100F043
:10228000E9FC0021200000F0E5FC10BD30B583B072
:1022900004000D004A88130A072B00D98EE09B002A
:1022A0004F49CB589F4684239B00C3581B68007C32
:1022B0006A46911D98476B4606331B88002B03D056
:1022C000EA88002A00D07EE003B030BD037C002BFA
:1022D00009D185239B00C3589B6A6A46901D984785
:1022E00002234370E7E785239B00C358DB6A6A46F5
:1022F000901D984702234370DDE7D2B2052A39D8F2
:102300009200384B9B589F4684239B00C3585B68C0
:10231000007C6A46911D9847CDE784239B00C358F3
:102320009B68007C6A46911D9847C4E784239B0004
:10233000C358DB68007C6A46911D9847BBE784233D
:102340009B00C3581B69007C6A46911D9847B2E701
:1023500084239B00C3585B69007C6A46911D9847A3
:10236000A9E784239B00C3589B69007C6A46911DA2
:102370009847A0E72900FFF77FFFA5E7037C002B24
:1023800007D185239B00C3585B6B6A46901D984715
:1023900091E72900FFF770FF96E7037C002B09D136
:1023A00085239B00C3581B6B6A46901D98470723E3
:1023B000437080E72900FFF75FFF85E729002000D1
:1023C000FFF75AFF80E7191C934200D9111C8AB20B
:1023D0006B46D9800100200000F0DBF974E7C046AD
:1023E000382F0008582F000870B504008B88002B88
:1023F00022D1CB88002B1FD18B787F251D40FE2357
:102400005B00C35C032B0FD0FF235B00C554290086
:1024100000F04CFC200000F0DAF9002D07D0FE237C
:102420005B000222E2540AE0FFF726FF07E0FE23EA
:102430005B000122E25402E02000FFF71DFF70BDA7
:1024400070B504000D008978284B197001290AD84D
:10245000FE235B00C35C022B09D0032B1ED0290096
:10246000FFF70AFF02E02900FFF706FF70BD002911
:1024700011D04160FE235B000322C254FFF79CFD94
:10248000022803D0200000F0A2F9EFE72900200085
:10249000FFF7F2FEEAE700F09AF9E7E7002911D02A
:1024A000436899421ED0D9B2FFF796FD0F4B1978B9
:1024B00061602000FFF780FD02280ED0200000F0B0
:1024C00086F9D3E7FE235B000222C2544160FFF786
:1024D00083FD200000F07BF9C8E729002000FFF70A
:1024E000CBFEC3E700F073F9C0E7C0465C010020F3
:1024F00010B5CB88012B09D1FE235B00C35C022BF6
:1025000007D0032B0DD0FFF7B7FE01E0FFF7B4FEB5
:1025100010BD0023836001000831012200F039F969
:10252000F6E7011D012200F034F9F1E710B5FE23B2
:102530005B00C35C023BDBB2012B0ED80123C360FE
:1025400081239B00C358002B01D00323C3600100EB
:102550000C31022200F01DF910BDFFF78DFEFBE7E4
:1025600010B50400FE235B00C35C023BDBB2012B11
:102570000ED84B88012B0AD181239B000022C25028
:102580001033C3589B689847200000F020F910BD15
:10259000FFF772FEFBE7000010B54B78092B19D846
:1025A0009B000E4AD3589F46FFF770FE002010BDD7
:1025B000FFF71AFFFAE7FFF743FFF7E7FFF798FF88
:1025C000F4E7FFF7B3FFF1E7FFF731FEEEE7FFF7C0
:1025D000C7FFEBE7FFF750FEE8E7C046702F0008A3
:1025E00070B504000D00FE235B00C35C032B13D108
:1025F0000B79022B0DD885239B00C3589B68984705
:10260000EB88002B01D0002070BD200000F0DFF827
:10261000F9E7FFF731FEF6E7FFF72EFEF3E770B5B7
:1026200005000C008A88D1B2207860230340202B5B
:1026300008D1F533FF33EB589B68210028009847F9
:10264000002070BD6378012B2CD0002B52D0032BBF
:10265000F6D1FA33FF33EB5C022B06D0032B0CD000
:1026600021002800FFF708FEEAE70029E8D08029CA
:10267000E6D0280000F0EEFAE2E76388002B06D1EE
:10268000002904D0802902D0280000F0E3FA852335
:102690009B00EB589B68210028009847280000F019
:1026A00096F8CDE7FE235B00EB5C022B06D0032BF4
:1026B0000CD021002800FFF7DFFDC1E70029BFD0C3
:1026C0008029BDD0280000F0C5FAB9E76388002B47
:1026D000B6D14B0603D1280000F079F8B0E7280006
:1026E00000F0C1FA85239B00EB589B68210028006D
:1026F0009847F0E7FE235B00EB5C022B06D0032B30
:102700000AD021002800FFF7B7FD99E74B0697D0C4
:10271000280000F09FFA93E7130612D47F240C40A0
:10272000103424012C190434280000F0A5FA0028E4
:102730000ED00123236002222100280000F029F896
:102740007EE77F240C40013424012C190434EBE78C
:1027500000232360EFE770B504000D001600002889
:1027600016D0FFF75AFD0130400080B2308028704B
:1027700003236B70013B08E001345A1CD2B2E954C8
:102780000233DBB2AA180021117021780029F3D19D
:1027900070BD10B51300FA225200022484508361E8
:1027A000C3610A00002100F08AFA002010BD10B5B4
:1027B00013000A00002100F082FA002010BD10B5BD
:1027C00013000A00002100F083FA002010BD10B5AC
:1027D000FA235B000422C25000230022002100F0F3
:1027E0006EFA002010BD10B5FA235B000522C2501E
:1027F00000230022002100F06BFA002010BD000031
:10280000064A516980239B020B4353619022D205F3
:10281000D36845210B43D3607047C0460010024087
:10282000114A916980239B000B4393610F4B1969F7
:10283000802212060A431A6160229A625A690321B1
:102840000A435A611B68DB0704D5084A136802393A
:102850000B431360054A936801210B439360034BBC
:102860001B68DB07FBD570470010024000240140C5
:1028700010B50A4A9368042423439360074B1B68EE
:102880005B07FBD5054B1B6C0380044B1B685B0788
:10289000FBD5024B1B6C0B8010BDC04600240140D1
:1028A00010B598B0302200210CA800F021FB1022B6
:1028B000002107A800F01CFB1822002101A800F04D
:1028C00017FB20230B931F3B13930BA8FEF762FE0D
:1028D00007230793043B0893002409940A940121D9
:1028E00007A8FFF71FF980239B020193069401A814
:1028F000FFF7E0F918B010BD70B586B0FDF7A2FC87
:10290000FFF7CEFF00F09AF8FFF78AFFFFF778FF96
:1029100030E014256B469C1D01AE21003000FFF70E
:10292000A7FF33889B091C20C01A228892091F3AEE
:1029300002A902230B7000234B708870CA7003AC8D
:10294000012222706370A370E57023716371A3711B
:10295000E37123720B4D03322800FFF7EEFA0A20D1
:10296000FDF78EFC092221002800FFF7E6FA0A2075
:10297000FDF786FC9023DB051B69DB07C9D5002525
:10298000C8E7C046780100207047000082B00A4BBB
:10299000996901221143996199690A400092009A4C
:1029A000DA69802149050A43DA61DB690B4001934A
:1029B000019B02B07047C046001002407047FEE71E
:1029C0007047704710B5FDF74DFC10BD10B50248BB
:1029D000FEF734FD10BDC0469C030020114B1A6861
:1029E00001210A431A605A680F4802405A601A6867
:1029F0000E4802401A601A680D4802401A605A6870
:102A00000C4802405A60DA6A0F208243DA621A6B7D
:102A1000094802401A635A6B8A435A6300229A603B
:102A20007047C046001002400CB8FF08FFFFF6FEDA
:102A3000FFFFFBFFFFFFC0FF2CFEFFFF10B50022D2
:102A40000D490E48FFF78EFA00280BD10C490B48B0
:102A5000FFF7A4FA002808D10848FFF7A8FA0028D1
:102A600006D110BDFFF790FFF0E7FFF78DFFF3E70A
:102A7000FFF78AFFF5E7C046240100207801002017
:102A8000B4000020002803D0022803D002207047A1
:102A90000020FCE70120FAE710B5FFF701FF10BDA9
:102AA00000B583B002680C4B9A4201D003B000BD60
:102AB0000A4AD169802000040143D161D3690340EF
:102AC0000193019B002200211F20FDF7EBFB1F203B
:102AD000FDF718FCEAE7C046005C00400010024029
:102AE00010B5010087239B00C058ED31FF31FFF77F
:102AF0007BFA10BD10B50300872292008058CA00EF
:102B0000521A94001B191933FF331A68FFF7A0FA01
:102B100010BD10B50300872292008058CA00521AD7
:102B200094001B199A6BFFF7CFFA10BD10B58723DD
:102B30009B00C058FFF761FB10BD70B504008368AF
:102B4000022B01D0FFF720FF8725AD00012160593E
:102B5000FFF73EFB6059FFF718FB70BD10B504008E
:102B600087239B00C058FFF736FBA369002B04D0D6
:102B7000024A136906210B43136110BD00ED00E00A
:102B800010B504008369002B05D187239B00E05812
:102B9000FFF72CFB10BD044A136906218B43136118
:102BA000FFF77AFFF1E7C04600ED00E070B50400E2
:102BB000174887239B00C4500433E050154B036033
:102BC00008234360063B8360036100238361C36184
:102BD0000362FDF7BDFB002816D18825AD00182340
:102BE000002200216059FEF7B7FC58230022802103
:102BF0006059FEF7B1FC605980235B0000228121FF
:102C0000FEF7AAFC002070BDFFF7BEFEE5E7C04658
:102C10009C030020005C004010B588239B00C05836
:102C2000FDF7F6FBFFF72EFF10BD10B514001A00DC
:102C300088239B00C0582300FDF712FCFFF722FFFA
:102C400010BD10B588239B00C058FDF7B3FDFFF7FA
:102C500019FF10BD10B588239B00C058FDF792FFE7
:102C6000FFF710FF10BD10B588239B00C058FDF77B
:102C7000E9FFFFF707FF10BD0A0088239B00C35838
:102C800049B2002909DB7F211140CA00511A8A008C
:102C90009B180B33FF33187870477F211140C80011
:102CA000411A8A009B182A331878F5E710B5882353
:102CB0009B00C058FDF7B8FBFFF7E4FE10BD10B550
:102CC0008824A4000059FEF741F8FFF7DBFE10BD91
:102CD00010B58824A4000059FDF754FEFFF7D2FE7A
:102CE00010BD0000004870476001002070470000E0
:102CF00012230B8000487047F000002004230B8053
:102D0000014814307047C046F000002030B5002361
:102D10000AE05D0037344C5500015C0001340C19A9
:102D2000002525700133DBB2934206D2040F092C33
:102D3000EFD85D0030344C55EEE730BD70B50B4B2D
:102D400018680B4B1D680B4B1B68C018002800D17E
:102D500070BD094C21001A310822FFF7D7FF21006E
:102D60002A3104222800FFF7D1FFF1E7ACF7FF1F5B
:102D7000B0F7FF1FB4F7FF1FF000002010B51A23B3
:102D80000B80FFF7DBFF0148183010BDF00000207A
:102D900010B50A00002805D005490648FFF7DBFCFE
:102DA000034810BD02490348FFF7D5FCF8E7C046C9
:102DB000BC050020B02F000810B50A00034C21000C
:102DC0000348FFF7C8FC200010BDC046BC0500202A
:102DD000C82F000810B50A00002805D0054906488C
:102DE000FFF7B9FC034810BD02490348FFF7B3FCE5
:102DF000F8E7C046BC050020DC2F000810B50A002B
:102E0000002805D005490648FFF7A5FC034810BD7A
:102E100002490348FFF79FFCF8E7C046BC050020C5
:102E2000E82F00081348854613480168090E134A25
:102E3000914205D1124813490160134813490160BA
:102E400013481449144A002302E0D458C4500433F0
:102E5000C4188C42F9D3114A114C002301E01360CD
:102E60000432A242FBD3FFF7B9FD00F01DF8FFF7D3
:102E700043FDFEE700180020040000001F000000D2
:102E80001810024001000000000001400000000096
:102E90000000002040010020003000084001002018
:102EA000BC070020FEE7000070B500260C4D0D4C5D
:102EB000641BA410A64209D1002600F021F80A4D97
:102EC0000A4C641BA410A64205D170BDB300EB5898
:102ED00098470136EEE7B300EB5898470136F2E722
:102EE000F82F0008F82F0008F82F0008FC2F000822
:102EF00003001218934200D1704719700133F9E7AB
:102F0000F8B5C046F8BC08BC9E467047F8B5C04648
:082F1000F8BC08BC9E467047A6
:102F180002030405060708090A0B0C0D0E0F101012
:102F28000102030405060708090A0B0C0D0E0F1011
:102F3800BC230008A6220008CC220008FA220008B8
:102F4800BC230008BC2300087C2300089A2300083F
:102F5800082300081A2300082C2300083E23000831
:102F68005023000862230008C2250008CE25000867
:102F7800D4250008C8250008D4250008B025000875
:102F8800A8250008D4250008BC250008B625000897
:102F98000000000000000000010203040607080901
:102FA800000000000102030453544D3332204875D9
:102FB8006D616E20696E74657266616365000000FC
:102FC80053544D6963726F656C656374726F6E6993
:102FD8006373000048494420436F6E6669670000C8
:102FE80048494420496E7465726661636500000053
:042FF800E9000008E4
:042FFC00C100000808
:1030000009022200010100E032090400000103006E
:103010000000092111010001227500070581030943
:10302000000A00000A060002000000400100000043
:1030300005010906A1018501050719E029E7150029
:103040002501750195088102950175088103950593
:103050007501050819012905910295017503910370
:103060009506750815002565050719002965810075
:10307000C005010902A1010901A100850205091984
:10308000012903150025019503750181029501753C
:103090000581030501093009311581257F750895E2
:1030A000028106C0C0000000092111010001227543
:1030B00000000000111F0008ED1E0008211E00087E
:1030C0000000000000000000011E000800000000D9
:1030D000000000000000000000000000F51D0008D6
:1030E000F51D0008F51D0008111E000800127A00E9
:1030F000120100020000004083042B57000201026D
:1031000003010000040309041A030000000000008A
:1031100000000000000000000000000000000000AF
:1031200000000000F12C0008FD2C0008B92D00085B
:10313000912D00087D2D0008D52D0008FD2D0008DB
:0400000508002E259C
:00000001FF
