:020000040800F2
:1000000000180020295300083D490008474900080E
:1000100000000000000000000000000000000000E0
:100020000000000000000000000000004D49000832
:100030000000000000000000574900086149000866
:10004000A9530008A9530008A9530008A9530008A0
:10005000A9530008A9530008A9530008A953000890
:10006000A9530008A9530008A9530008A953000880
:10007000A9530008A9530008A9530008A953000870
:10008000914500080000000000000000A95300088E
:1000900000000000A9530008A9530008A953000854
:1000A00000000000A9530008A9530008A953000844
:1000B000A953000800000000A95300087149000876
:1000C00010B5064C2378002B07D1054B002B02D02E
:1000D000044800E000BF0123237010BD4001002050
:1000E0000000000004540008044B10B5002B03D09E
:1000F0000349044800E000BF10BDC04600000000F6
:100100004401002004540008002243088B4274D3A9
:1001100003098B425FD3030A8B4244D3030B8B4208
:1001200028D3030C8B420DD3FF22090212BA030C11
:100130008B4202D31212090265D0030B8B4219D3F2
:1001400000E0090AC30B8B4201D3CB03C01A524112
:10015000830B8B4201D38B03C01A5241430B8B425A
:1001600001D34B03C01A5241030B8B4201D30B0343
:10017000C01A5241C30A8B4201D3CB02C01A52416A
:10018000830A8B4201D38B02C01A5241430A8B422D
:1001900001D34B02C01A5241030A8B4201D30B0216
:1001A000C01A5241CDD2C3098B4201D3CB01C01A30
:1001B000524183098B4201D38B01C01A524143093A
:1001C0008B4201D34B01C01A524103098B4201D328
:1001D0000B01C01A5241C3088B4201D3CB00C01A95
:1001E000524183088B4201D38B00C01A524143080D
:1001F0008B4201D34B00C01A5241411A00D2014632
:10020000524110467047FFE701B5002000F006F8A4
:1002100002BDC0460029F7D076E770477047C04658
:1002200080B500AF074B1A68064B10210A431A60CD
:10023000002000F009F804F05DFB00231800BD4623
:1002400080BDC0460020024080B582B000AF78601B
:1002500002F0D6FE0200FA2399001000FFF754FFC7
:100260000300180000F00DF9796801235B420022B9
:10027000180000F0E1F800231800BD4602B080BD70
:1002800080B500AF034B1B685A1C024B1A60C04676
:10029000BD4680BD7401002080B500AF024B1B68D5
:1002A0001800BD4680BDC0467401002080B584B0F2
:1002B00000AF7860FFF7F0FF0300BB607B68FB6076
:1002C000FB68013302D0FB680133FB60C046FFF7D7
:1002D000E3FF0200BB68D31AFA689A42F7D8C04617
:1002E000BD4604B080BD000080B582B000AF020002
:1002F000FB1D1A70FB1D1B781A001F231A40044BAC
:10030000012191400A001A60C046BD4602B080BD7E
:1003100000E100E090B583B000AF02003960FB1D42
:100320001A70FB1D1B787F2B32D92F4AFB1D1B78BF
:1003300019000F230B40083B9B0806339B00D31882
:1003400004331B68FA1D1278110003220A40D20000
:10035000FF2191400A00D2431A4011003B689B01E3
:10036000FF221A40FB1D1B78180003230340DB000B
:100370009A401D48FB1D1B781C000F232340083B9F
:100380009B080A4306339B00C31804331A6027E016
:10039000164AFB1D1B785BB29B08C0339B009B5821
:1003A000FA1D1278110003220A40D200FF21914069
:1003B0000A00D2431A4011003B689B01FF221A40F9
:1003C000FB1D1B78180003230340DB009A400748FD
:1003D000FB1D1B785BB29B080A43C0339B001A507D
:1003E000C046BD4603B090BD00ED00E000E100E076
:1003F00080B582B000AF78607B68013B0C4A9342C5
:1004000001D9012310E00B4B7A68013A5A600123AD
:100410005B4203211800FFF77DFF064B00229A6024
:10042000044B07221A6000231800BD4602B080BDAD
:10043000FFFFFF0010E000E080B584B000AFB960BE
:100440007A600F217B18021C1A70BA687B181B781F
:100450005BB211001800FFF75DFFC046BD4604B057
:1004600080BD80B582B000AF0200FB1D1A70FB1D7D
:100470001B785BB21800FFF737FFC046BD4602B0DD
:1004800080BD80B582B000AF78607B681800FFF750
:10049000AFFF03001800BD4602B080BD90B585B027
:1004A00000AF78600023FB600023BB607B68002BFB
:1004B00001D10123DEE07A68EA23FF33D35CDBB2AB
:1004C000002B08D17A68F4235B000021D1547B68AB
:1004D000180004F0C5FA7A68EA23FF330321D154E7
:1004E0000023FB6043E07968FA6829201300DB00F1
:1004F0009B1A9B00CB181B1801221A70FB68DCB2F8
:100500007968FA6828201300DB009B1A9B00CB183F
:100510001B18221C1A707968FA682B201300DB0064
:100520009B1A9B00CB181B1800221A707968FA6876
:100530001300DB009B1A9B00CB18343300221A6097
:100540007968FA681300DB009B1A9B00CB183833DC
:1005500000221A607968FA681300DB009B1A9B007E
:10056000CB183C3300221A60FB680133FB607B68C8
:100570005B68FA689A42B6D30023FB604EE0786865
:10058000FA680A23FF3319001300DB009B1A9B0053
:10059000C3185B1800221A70FB68DCB27868FA682E
:1005A000842359001300DB009B1A9B00C3185B18BF
:1005B000221C1A707868FA680C23FF3319001300A4
:1005C000DB009B1A9B00C3185B1800221A70786826
:1005D000FA688A2359001300DB009B1A9B00C3189A
:1005E0005B1800221A607868FA688C23590013009F
:1005F000DB009B1A9B00C3185B1800221A60786806
:10060000FA688E2359001300DB009B1A9B00C31865
:100610005B1800221A60FB680133FB607B685B6833
:10062000FA689A42ABD37B681B6840220121995239
:100630007B681B684022002199527B681B6844221A
:10064000002199527B681B68502200219952BF23D8
:100650001B02BB607B681B68BA6891B2402299524A
:100660007B682422002199547A68EA23FF33012110
:10067000D15400231800BD4605B090BD80B582B0AE
:1006800000AF78607B681B6858229B5A9AB27B68DF
:100690001B6805490A4391B2582299520023180059
:1006A000BD4602B080BDC0460080FFFF80B584B06B
:1006B00000AF78600023FB607B681B6844229B5A74
:1006C0009BB21A0080231B021A4080231B029A420D
:1006D00003D17B68180001F0F1FB7B681B684422A2
:1006E0009B5A9BB21A008023DB001A408023DB0058
:1006F0009A4214D17B681B6844229B5A9AB27B6849
:100700001B6877490A4091B2442299527B681800CD
:1007100004F02FFA7B680021180000F0EFF87B68E6
:100720001B6844229B5A9BB21A008023DB011A40AB
:100730008023DB019A420BD17B681B6844229B5AC1
:100740009AB27B681B6867490A4091B24422995269
:100750007B681B6844229B5A9BB21A0080239B0132
:100760001A4080239B019A420BD17B681B6844226C
:100770009B5A9AB27B681B685B490A4091B244223B
:1007800099527B681B6844229B5A9BB21A008023B3
:100790005B011A4080235B019A4224D17B681B686D
:1007A00040229B5A9AB27B681B6804218A4391B20B
:1007B00040229952BD231B02FB607B681B68FA68CC
:1007C00091B2402299527B68180004F013FA7B68BA
:1007D0001B6844229B5A9AB27B681B6843490A40B3
:1007E00091B2442299527B681B6844229B5A9BB267
:1007F0001A0080231B011A4080231B019A4234D126
:100800007B681B6844229B5A9AB27B681B683849F4
:100810000A4091B2442299527B681B6840229B5A3D
:100820009AB27B681B6808210A4391B24022995210
:100830007B681B6840229B5A9AB27B681B68042124
:100840000A4391B2402299527B681B6844229B5A0A
:100850009BB21A0080235B011A4080235B019A42FD
:1008600003D07B68180004F0A9F97B681B68442258
:100870009B5A9BB21A0080239B001A4080239B0046
:100880009A420FD17B681B6844229B5A9AB27B68BC
:100890001B6818490A4091B2442299527B6818009B
:1008A00004F058F97B681B6844229B5A9BB21A00DB
:1008B00080235B001A4080235B009A420BD17B6847
:1008C0001B6844229B5A9AB27B681B680A490A40FB
:1008D00091B244229952C046BD4604B080BDC04684
:1008E000FFFBFFFFFFBFFFFFFFDFFFFFFFEFFFFF8C
:1008F000FFF7FFFFFFFDFFFFFFFEFFFF80B582B0A8
:1009000000AF78600A00FB1C1A707A68F4235B0061
:10091000D35C012B01D1022319E07A68F4235B0038
:100920000121D154FB1C1B78002B05D17B681B686F
:100930004C228021995204E07B68FA1C2421127811
:100940005A547A68F4235B000021D1540023180024
:10095000BD4602B080BD000090B587B000AF7860A2
:100960000C0010001900FB1C221C1A703B00021C1A
:100970001A80BB1C0A1C1A701123FB1800221A7063
:10098000FB1C1B785BB2002B0CDAFB1C1B787F2254
:100990001A401300DB009B1A9B0028337A68D31897
:1009A0007B610CE0FB1C1B787F221A401300DB00EC
:1009B0009B1A9B000933FF337A68D3187B61FB1CB9
:1009C0001B787F221340DAB27B691A70FB1C1B78FC
:1009D0005BB2DBB2DB09DBB21A007B695A703B0009
:1009E0001A887B69DA607B69BA1C1278DA707A68D7
:1009F000F4235B00D35C012B01D1022311E37A685D
:100A0000F4235B000121D1547B69DB78012B4CD0AE
:100A100002DC002B05D060E0022B1AD0032B2CD077
:100A20005BE07B681B681A007B691B789B00D3180E
:100A30001B88BA4A13409AB27B681B6819007B690D
:100A40001B789B00CB18802189000A4392B21A8040
:100A500043E07B681B681A007B691B789B00D318F6
:100A60001A887B681B6819007B691B789B00CB1870
:100A7000AA490A4092B21A802FE07B681B681A00CC
:100A80007B691B789B00D3181B88A44A13409AB239
:100A90007B681B6819007B691B789B00CB18C02101
:100AA000C9000A4392B21A8017E07B681B681A00DB
:100AB0007B691B789B00D3181B88984A13409AB215
:100AC0007B681B6819007B691B789B00CB18802111
:100AD000C9000A4392B21A80C0467B681B681A009C
:100AE0007B691B789B00D3181B888D4A13409AB2F0
:100AF0007B691B789BB213439AB27B681B68190011
:100B00007B691B789B00CB1886490A4392B21A80F6
:100B10007B699B7A002B00D014E17B695B78002B0A
:100B200056D07B699B885B0899B27B681B68502212
:100B30009B5A9BB21A007B691B78DB00D3181A0002
:100B40007B681B68D3188022D200944663441A0045
:100B50000B1CDB189BB213807B681B681A007B6937
:100B60001B789B00D3181B881A004023134015D014
:100B70007B681B681A007B691B789B00D3181B8855
:100B8000674A13409AB27B681B6819007B691B781F
:100B90009B00CB1864490A4392B21A807B681B6899
:100BA0001A007B691B789B00D3181B885F4A13408F
:100BB0009CB2202363409CB27B681B681A007B694F
:100BC0001B789B00D318574A224392B21A8020E226
:100BD0007B699B885B0899B27B681B6850229B5A93
:100BE0009BB21A007B691B78DB00D3181A007B6864
:100BF0001B68D3184E4A944663441A000B1CDB183A
:100C00009BB213807B681B6850229B5A9BB21A00D0
:100C10007B691B78DB00D3181A007B681B68D3182C
:100C2000444A94466344FB607B69DB683E2B1BD9D6
:100C30007B69DB685A091223FB181A807B69DB6821
:100C40001F22134005D112217B181A887B18013A04
:100C50001A801223FB181B889B029BB2364A13434F
:100C60009AB2FB681A8017E07B69DB685A08122386
:100C7000FB181A807B69DB680122134005D0122122
:100C80007B181A887B1801321A801223FB181B88E4
:100C90009B029AB2FB681A807B681B681A007B690A
:100CA0001B789B00D3181B881A008023DB0113409C
:100CB00015D07B681B681A007B691B789B00D318D2
:100CC0001B88174A13409AB27B681B6819007B691E
:100CD0001B789B00CB1819490A4392B21A807B6893
:100CE0001B681A007B691B789B00D3181B88144A69
:100CF00013409CB280235B0163409CB280239B0124
:100D000063409CB27B681B681A007B691B789B0060
:100D1000D318044A224392B21A807AE18F89FFFFE6
:100D20000F0F00008080FFFFC080FFFFBF8FFFFF1D
:100D300004040000060400000080FFFF80C0FFFFE5
:100D40008FBFFFFF7B681B681A007B691B789B00C5
:100D5000D3181B88B54A13409AB27B681B681900E8
:100D60007B691B789B00CB18B1490A4392B21A8069
:100D70007B69DB885B0899B27B681B6850229B5AB1
:100D80009BB21A007B691B78DB00D3181A007B68C2
:100D90001B68D3188022D200944663441A000B1CAF
:100DA000DB189BB213807B691B895B0899B27B6857
:100DB0001B6850229B5A9BB21A007B691B78DB0090
:100DC000D3181A007B681B68D3189A4A9446634468
:100DD0001A000B1CDB189BB213807B695B78002B1D
:100DE00000D08FE07B681B681A007B691B789B0032
:100DF000D3181B881A008023DB01134015D07B68B1
:100E00001B681A007B691B789B00D3181B888A4AD1
:100E100013409AB27B681B6819007B691B789B00A2
:100E2000CB1886490A4392B21A807B681B681A0065
:100E30007B691B789B00D3181B881A004023134042
:100E400015D07B681B681A007B691B789B00D31840
:100E50001B88794A13409AB27B681B6819007B692A
:100E60001B789B00CB1876490A4392B21A807B68A4
:100E70001B681A007B691B789B00D3181B886E4A7D
:100E800013409AB27B681B6819007B691B789B0032
:100E9000CB186B490A4392B21A807B681B681A0010
:100EA0007B691B789B00D3181B88664A13409CB251
:100EB00080235B0163409CB280239B0163409CB212
:100EC0007B681B681A007B691B789B00D3185E4AFD
:100ED000224392B21A807B681B681A007B691B78D8
:100EE0009B00D3181B88594A13409CB27B681B682F
:100EF0001A007B691B789B00D318534A224392B295
:100F00001A8086E07B681B681A007B691B789B004F
:100F1000D3181B881A008023DB01134015D07B688F
:100F20001B681A007B691B789B00D3181B88424AF8
:100F300013409AB27B681B6819007B691B789B0081
:100F4000CB183E490A4392B21A807B681B681A008C
:100F50007B691B789B00D3181B881A004023134021
:100F600015D07B681B681A007B691B789B00D3181F
:100F70001B88314A13409AB27B681B6819007B6951
:100F80001B789B00CB182E490A4392B21A807B68CB
:100F90001B681A007B691B789B00D3181B88264AA4
:100FA00013409AB27B681B6819007B691B789B0011
:100FB000CB1822490A4392B21A807B681B681A0038
:100FC0007B691B789B00D3181B88204A13409CB276
:100FD0007B681B681A007B691B789B00D3181A4A30
:100FE000224392B21A807B681B681A007B691B78C7
:100FF0009B00D3181B88134A13409CB27B681B6864
:101000001A007B691B789B00D3180F4A224392B2C7
:101010001A807A68F4235B000021D1541123FB1855
:101020001B781800BD4607B090BDC0460F0E0000EB
:101030008081FFFF040400000F0F000080C0FFFF4D
:10104000C080FFFF8FBFFFFF8080FFFFBF8FFFFFCC
:1010500090B585B000AF78600A00FB1C1A70FB1CCD
:101060001B785BB2002B0CDAFB1C1B787F221A402A
:101070001300DB009B1A9B0028337A68D318FB60AF
:101080000CE0FB1C1B787F221A401300DB009B1A2C
:101090009B000933FF337A68D318FB60FB1C1B7875
:1010A0007F221340DAB2FB681A70FB1C1B785BB21C
:1010B000DBB2DB09DBB21A00FB685A707A68F423F2
:1010C0005B00D35C012B01D102239AE17A68F423FF
:1010D0005B000121D154FB689B7A002B00D076E0A5
:1010E000FB685B78002B38D07B681B681A00FB68B4
:1010F0001B789B00D3181B881A004023134015D07F
:101100007B681B681A00FB681B789B00D3181B8840
:10111000BE4A13409AB27B681B681900FB681B78B3
:101120009B00CB18BA490A4392B21A807B681B68AD
:101130001A00FB681B789B00D3181B88B54A134024
:101140009CB27B681B681A00FB681B789B00D31855
:10115000B14A224392B21A804DE17B681B681A00A3
:10116000FB681B789B00D3181B881A008023DB01C7
:10117000134015D07B681B681A00FB681B789B0026
:10118000D3181B88A14A13409AB27B681B681900C8
:10119000FB681B789B00CB18A0490A4392B21A80C7
:1011A0007B681B681A00FB681B789B00D3181B88A0
:1011B0009B4A13409CB27B681B681A00FB681B7833
:1011C0009B00D318944A224392B21A8013E1FB6821
:1011D0005B78002B00D087E07B681B681A00FB68F7
:1011E0001B789B00D3181B881A008023DB01134057
:1011F00015D07B681B681A00FB681B789B00D3180E
:101200001B88824A13409AB27B681B681900FB68EE
:101210001B789B00CB1881490A4392B21A807B68E5
:101220001B681A00FB681B789B00D3181B881A00E8
:101230004023134015D07B681B681A00FB681B789D
:101240009B00D3181B88714A13409AB27B681B68B5
:101250001900FB681B789B00CB186D490A4392B2BA
:101260001A807B681B681A00FB681B789B00D318E8
:101270001B88664A13409AB27B681B681900FB689A
:101280001B789B00CB1862490A4392B21A807B6894
:101290001B681A00FB681B789B00D3181B88604AE8
:1012A00013409CB27B681B681A00FB681B789B008C
:1012B000D318594A224392B21A807B681B681A00DD
:1012C000FB681B789B00D3181B88524A13409CB2C2
:1012D0007B681B681A00FB681B789B00D3184E4A7A
:1012E000224392B21A8086E07B681B681A00FB6872
:1012F0001B789B00D3181B881A008023DB01134046
:1013000015D07B681B681A00FB681B789B00D318FC
:101310001B883E4A13409AB27B681B681900FB6821
:101320001B789B00CB183D490A4392B21A807B6818
:101330001B681A00FB681B789B00D3181B881A00D7
:101340004023134015D07B681B681A00FB681B788C
:101350009B00D3181B882D4A13409AB27B681B68E8
:101360001900FB681B789B00CB1829490A4392B2ED
:101370001A807B681B681A00FB681B789B00D318D7
:101380001B88224A13409AB27B681B681900FB68CD
:101390001B789B00CB1821490A4392B21A807B68C4
:1013A0001B681A00FB681B789B00D3181B88194A1E
:1013B00013409CB27B681B681A00FB681B789B007B
:1013C000D318154A224392B21A807B681B681A0010
:1013D000FB681B789B00D3181B88114A13409CB2F2
:1013E0007B681B681A00FB681B789B00D3180A4AAD
:1013F000224392B21A807A68F4235B000021D15410
:1014000000231800BD4605B090BDC0460F0F000078
:10141000C080FFFFBF8FFFFF8080FFFF80C0FFFF06
:101420008FBFFFFF90B58BB000AFF8607A603B6074
:101430000B203B180A1C1A7001007B181B787F22B6
:101440001A401300DB009B1A9B000933FF33FA6834
:10145000D318FB61FB697A681A61FB693A685A61C3
:10146000FB6900229A61FB6900225A707B181B7885
:101470007F221340DAB2FB691A70FB695A69FB6973
:10148000DB689A4209D9FB69DB683B60FB695A69F2
:101490003B68D21AFB695A6105E0FB695B693B60F6
:1014A000FB6900225A61FB699B7A002B45D1FB68DE
:1014B0001B6850229B5A9BB21A00FB691B78DB0009
:1014C000D3181A00FB681B68D3188F4A94466344EC
:1014D0003B613B683E2B19D93B685A092623FB1810
:1014E0001A803B681F22134005D126217B181A88D9
:1014F0007B18013A1A802623FB181B889B029BB29B
:10150000824A13439AB23B691A80DAE03B685A0870
:101510002623FB181A803B680122134005D02621A0
:101520007B181A887B1801321A802623FB181B8827
:101530009B029AB23B691A80C3E0FB695B78002B7F
:1015400045D1FB681B6850229B5A9BB21A00FB696D
:101550001B78DB00D3181A00FB681B68D3186C4A91
:1015600094466344BB613B683E2B19D93B685A09DA
:101570002423FB181A803B681F22134005D1242125
:101580007B181A887B18013A1A802423FB181B88C1
:101590009B029BB25D4A13439AB2BB691A802EE04C
:1015A0003B685A082423FB181A803B680122134029
:1015B00005D024217B181A887B1801321A80242335
:1015C000FB181B889B029AB2BB691A8017E0FB6963
:1015D0005B78012B13D1FB681B6850229B5A9BB28E
:1015E0001A00FB691B78DB00D3181A00FB681B6824
:1015F000D318474A944663443A6892B21A80FB690A
:101600005B78002B45D1FB681B6850229B5A9BB22C
:101610001A00FB691B78DB00D3181A00FB681B68F3
:10162000D318394A944663447B613B683E2B19D9F1
:101630003B685A092223FB181A803B681F2213407B
:1016400005D122217B181A887B18013A1A8022239F
:10165000FB181B889B029BB22C4A13439AB27B69EE
:101660001A802EE03B685A082223FB181A803B6838
:101670000122134005D022217B181A887B180132E1
:101680001A802223FB181B889B029AB27B691A805E
:1016900017E0FB695B78012B13D1FB681B685022B4
:1016A0009B5A9BB21A00FB691B78DB00D3181A0007
:1016B000FB681B68D318144A944663443A6892B294
:1016C0001A80FB681B681A00FB691B789B00D31803
:1016D0001B88104A13409CB280235B0163409CB27C
:1016E00080239B0163409CB2FB681B681A00FB6966
:1016F0001B789B00D318084A224392B21A80002319
:101700001800BD460BB090BD060400000080FFFF2E
:10171000020400008FBFFFFF8080FFFF90B58BB0F9
:1017200000AFF8607A603B600B203B180A1C1A700F
:101730002623FB1800221A8001007B181B787F22C9
:101740001A401300DB009B1A9B002833FA68D31859
:10175000FB61FB697A681A61FB693A685A61FB6947
:1017600000229A61FB6901225A707B181B787F2244
:101770001340DAB2FB691A70FB695A69FB69DB68CE
:101780009A4209D9FB69DB683B60FB695A693B688F
:10179000D21AFB695A6105E0FB695B693B60FB6932
:1017A00000225A61FB699B7A002B1ED1FB681868E6
:1017B000FB691969FB699A883B689BB200F0F2FAF1
:1017C000FB681B6850229B5A9BB21A00FB691B786E
:1017D000DB00D3181A00FB681B68D318A14A944693
:1017E00063443A6892B21A801BE1FB681B681A00D6
:1017F000FB691B789B00D3181B881A0040231340F9
:1018000067D0FB695B78002B45D1FB681B685022D1
:101810009B5A9BB21A00FB691B78DB00D3181A0095
:10182000FB681B68D318904A944663447B613B680D
:101830003E2B19D93B685A092423FB181A803B68B0
:101840001F22134005D124217B181A887B18013AE6
:101850001A802423FB181B889B029BB2834A1343E4
:101860009AB27B691A802EE03B685A082423FB1841
:101870001A803B680122134005D024217B181A8866
:101880007B1801321A802423FB181B889B029AB212
:101890007B691A8017E0FB695B78012B13D1FB6829
:1018A0001B6850229B5A9BB21A00FB691B78DB0015
:1018B000D3181A00FB681B68D3186B4A944663441C
:1018C0003A6892B21A802623FB18FA6912891A80A4
:1018D00066E0FB695B78002B45D1FB681B685022F2
:1018E0009B5A9BB21A00FB691B78DB00D3181A00C5
:1018F000FB681B68D3185B4A94466344BB613B6832
:101900003E2B19D93B685A092223FB181A803B68E1
:101910001F22134005D122217B181A887B18013A17
:101920001A802223FB181B889B029BB24F4A134349
:101930009AB2BB691A802EE03B685A082223FB1832
:101940001A803B680122134005D022217B181A8897
:101950007B1801321A802223FB181B889B029AB243
:10196000BB691A8017E0FB695B78012B13D1FB6818
:101970001B6850229B5A9BB21A00FB691B78DB0044
:10198000D3181A00FB681B68D318364A9446634480
:101990003A6892B21A802623FB18FA69D2881A8014
:1019A000FB681868FB6919693B689CB22623FB1821
:1019B0001A88230000F0F6F9FB695B78002B16D13A
:1019C000FB681B681A00FB691B789B00D3181B88F7
:1019D000274A13409AB2FB681B681900FB691B7801
:1019E0009B00CB1823490A4392B21A8019E0FB6985
:1019F0005B78012B15D1FB681B681A00FB691B780B
:101A00009B00D3181B881A4A13409AB2FB681B68C4
:101A10001900FB691B789B00CB1817490A4392B247
:101A20001A80FB681B681A00FB691B789B00D3189F
:101A30001B88124A13409CB2102363409CB220239F
:101A400063409CB2FB681B681A00FB691B789B0013
:101A5000D3180B4A224392B21A8000231800BD46C5
:101A60000BB090BD02040000060400000080FFFFE0
:101A70000F0F0000C080FFFF80C0FFFFBF8FFFFF80
:101A80008080FFFF90B585B000AF78600A00FB1C36
:101A90001A707A68F4235B00D35C012B01D1022316
:101AA00096E07A68F4235B000121D154FB1C1B787B
:101AB0005BB2002B0CDAFB1C1B787F221A40130050
:101AC000DB009B1A9B0028337A68D318FB600AE07E
:101AD000FB1C1A781300DB009B1A9B000933FF33B1
:101AE0007A68D318FB60FB6801229A70FB1C1B7894
:101AF0007F221340DAB2FB681A70FB1C1B785BB2C2
:101B0000DBB2DB09DBB21A00FB685A70FB681B789A
:101B1000002B1FD17B681B681A00FB681B789B0099
:101B2000D3181B881A002C4B1A40140080235B0129
:101B300063401C00102363401C00A2B27B681B683A
:101B40001900FB681B789B00CB1824490A4392B20A
:101B50001A8037E0FB685B78002B19D07B681B6824
:101B60001A00FB681B789B00D3181B881C4A134083
:101B70009CB2102363409CB27B681B681A00FB6810
:101B80001B789B00D318154A224392B21A8019E0A1
:101B90007B681B681A00FB681B789B00D3181B88A6
:101BA000104A13409CB280235B0163409CB27B6867
:101BB0001B681A00FB681B789B00D318074A224356
:101BC00092B21A807A68F4235B000021D15400237A
:101BD0001800BD4605B090BDBFBF00008080FFFF6C
:101BE000BF8FFFFF8FBFFFFF90B585B000AF78605C
:101BF0000A00FB1C1A70FB1C1B785BB2002B0CDA72
:101C0000FB1C1B787F221A401300DB009B1A9B00F1
:101C100028337A68D318FB600AE0FB1C1A7813009B
:101C2000DB009B1A9B000933FF337A68D318FB60F3
:101C3000FB6800229A70FB1C1B787F221340DAB2EB
:101C4000FB681A70FB1C1B785BB2DBB2DB09DBB2F2
:101C50001A00FB685A707A68F4235B00D35C012B8E
:101C600001D102238EE07A68F4235B000121D15474
:101C7000FB685B78002B3ED07B681B681A00FB6812
:101C80001B789B00D3181B881A004023134015D0E3
:101C90007B681B681A00FB681B789B00D3181B88A5
:101CA0003A4A13409AB27B681B681900FB681B789C
:101CB0009B00CB1836490A4392B21A807B681B6896
:101CC0001A00FB681B789B00D3181B88314A13400D
:101CD0009CB2102363409CB2202363409CB27B687B
:101CE0001B681A00FB681B789B00D3182A4A224302
:101CF00092B21A8040E07B681B681A00FB681B7870
:101D00009B00D3181B881A008023DB01134015D0D9
:101D10007B681B681A00FB681B789B00D3181B8824
:101D20001A4A13409AB27B681B681900FB681B783B
:101D30009B00CB1819490A4392B21A807B681B6832
:101D40001A00FB681B789B00D3181B88144A1340A9
:101D50009CB280235B0163409CB280239B01634063
:101D60009CB27B681B681A00FB681B789B00D31829
:101D7000094A224392B21A807A68F4235B00002158
:101D8000D15400231800BD4605B090BD0F0F0000D0
:101D9000C080FFFFBF8FFFFF8080FFFF80C0FFFF7D
:101DA0008FBFFFFF90B589B000AFF860B960190030
:101DB000BB1D1A803B1D0A1C1A803B1D1B8801336A
:101DC0005B087B61BB1D1A88FB68D3188022D20098
:101DD00094466344BB617B69FB611EE0BB681A7873
:101DE00012203B181A80BB680133BB60BB681B78AC
:101DF0009BB21B0299B210243B193A1812880A436D
:101E00001A80BB699A1CBA613A1912881A80BB6899
:101E10000133BB60FB69013BFB61FB69002BDDD13A
:101E2000C046BD4609B090BD80B588B000AFF8602F
:101E3000B9601900BB1D1A803B1D0A1C1A803B1D8E
:101E40001B885B089BB27B61BB1D1A88FB68D3189B
:101E50008022D20094466344BB617B69FB6114E03D
:101E6000BB699A1CBA611B883B61BB685A1CBA608B
:101E70003A69D2B21A703B69190ABB685A1CBA6037
:101E8000CAB21A70FB69013BFB61FB69002BE7D109
:101E90003B1D1B88012213409BB2002B0AD0BB695B
:101EA0009A1CBA611B883B61BB685A1CBA603A69CC
:101EB000D2B21A70C046BD4608B080BD90B589B098
:101EC00000AF78601E23FB1800221A800C23FB1839
:101ED00000221A803FE30E23FB181B889BB2DAB264
:101EE0001D203B180F210A401A703B181B78002B4D
:101EF00000D036E10E23FB181B889BB21A0010237A
:101F000013404CD17B681B681A887B681B681900DA
:101F1000DD4B13409BB20B807B682833BB617B6831
:101F20001B6850229B5A9BB21A00BB691B78DB00CE
:101F3000D3181A007B681B68D318D44A94466344AC
:101F40001B889B059A0DBB699A61BB691A69BB69BD
:101F50009B69D218BB691A617B680021180002F0E6
:101F6000DBFD7B6824229B5CDBB2002B00D1F2E21C
:101F7000BB695B69002B00D0EDE27B6824229B5C8F
:101F8000DBB2802252421343DAB27B681B6891B203
:101F90004C2299527B68242200219954DBE27B6811
:101FA0000933FF33BB617B681B681A880C217B18DF
:101FB0001A807B181B889BB21A0080231B011340D8
:101FC00031D07B681B6850229B5A9BB21A00BB69B8
:101FD0001B78DB00D3181A007B681B68D318AC4A47
:101FE000944663441B889B059A0DBB699A617B6884
:101FF00018687B68ED33FF331900BB699A88BB69A9
:102000009B699BB2FFF710FF7B681B681A887B688F
:102010001B6819009F4B13409BB20B807B68180014
:1020200002F046FD97E20C23FB181B889BB21BB203
:10203000002B00DB8FE27B681B681A887B681B68BB
:102040001900944B13409BB20B807B681B68502295
:102050009B5A9BB21A00BB691B78DB00D3181A008D
:102060007B681B68D3188A4A944663441B889B0587
:102070009A0DBB699A61BB699B69002B11D07B6883
:102080001868BB691969BB699A88BB699B699BB26F
:10209000FFF7CAFEBB691A69BB699B69D218BB69A5
:1020A0001A617B680021180002F015FD7B681B682F
:1020B00050229B5A9BB21A007B681B68D318744A43
:1020C000944663443B61BB69DB683E2B1BD9BB690B
:1020D000DB685A091623FB181A80BB69DB681F22CC
:1020E000134005D116217B181A887B18013A1A80F3
:1020F0001623FB181B889B029BB2674A13439AB2B4
:102100003B691A8017E0BB69DB685A081623FB1885
:102110001A80BB69DB680122134005D016217B18A9
:102120001A887B1801321A801623FB181B889B0221
:102130009AB23B691A807B681B681B88574A134018
:102140009CB280235B0163409CB280239B0163406F
:102150009CB27B681B681A00514B23439BB21380CF
:10216000F9E17B681B681A001D23FB181B789B0094
:10217000D3181A880C217B181A807B181B889BB2F5
:102180001BB2002B00DBF4E07B681B681A001D20EB
:102190003B181B789B00D3181A887B681B681900B2
:1021A0003B181B789B00CB183A490A4092B21A8020
:1021B0003B181A781300DB009B1A9B000933FF338E
:1021C0007A68D318BB61BB699B7A002B27D17B68E7
:1021D0001B6850229B5A9BB21A00BB691B78DB001C
:1021E000D3181A007B681B68D318294A94466344A5
:1021F0001A881E217B189205920D1A807B181B8865
:10220000002B00D18AE07B681868BB691969BB693B
:102210009A881E23FB181B88FFF706FE7EE07B686A
:102220001B681A00BB691B789B00D3181B881A0017
:102230008023DB01134035D07B681B6850229B5AFA
:102240009BB21A00BB691B78DB00D3181A007B68AD
:102250001B68D3180D4A944663441A881E217B18C4
:102260009205920D1A807B181B88002B40D07B684A
:102270001868BB691969BB69DA881E23FB181B88BB
:10228000FFF7D2FD34E0C0460F8FFFFF02040000CD
:10229000060400008F0F00000080FFFF8FBFFFFFCC
:1022A0008080FFFF7B681B6850229B5A9BB21A00FC
:1022B000BB691B78DB00D3181A007B681B68D31836
:1022C000AE4A944663441A881E217B189205920DEB
:1022D0001A807B181B88002B0AD07B681868BB69A2
:1022E0001969BB691A891E23FB181B88FFF79CFD1F
:1022F0007B681B681A00BB691B789B00D3181B887E
:102300009F4A13409AB27B681B681900BB691B780F
:102310009B00CB189B490A4392B21A80BB699A6909
:102320001E217B181B88D218BB699A61BB691A6988
:102330007B181B88D218BB691A61BB695B69002BCB
:1023400006D01E23FB181A88BB69DB689A4207D2A5
:10235000BB691A787B681100180002F0BCFB08E02A
:10236000BB691978BB691A69BB695B697868FFF753
:1023700059F80C23FB181B889BB21A0080231340CA
:1023800000D1E8E01D217B181A781300DB009B1AAE
:102390009B0028337A68D318BB617B681B681A00DE
:1023A00008007B181B789B00D3181A887B681B6871
:1023B00019003B181B789B00CB1873490A4092B256
:1023C0001A80BB699B7A002B26D17B681B68502240
:1023D0009B5A9BB21A00BB691B78DB00D3181A000A
:1023E0007B681B68D318694A944663441B889B0525
:1023F0009A0DBB699A61BB699B69002B00D178E09B
:102400007B681868BB691969BB699A88BB699B6955
:102410009BB2FFF7C7FC6CE07B681B681A00BB69C6
:102420001B789B00D3181B881A004023134025D02B
:102430007B681B6850229B5A9BB21A00BB691B78B1
:10244000DB00D3181A007B681B68D3184F4A9446E8
:1024500063441B889B059A0DBB699A61BB699B69A4
:10246000002B30D07B681868BB691969BB69DA88B2
:10247000BB699B699BB2FFF795FC24E07B681B68F6
:1024800050229B5A9BB21A00BB691B78DB00D31801
:102490001A007B681B68D318384A944663441B882B
:1024A0009B059A0DBB699A61BB699B69002B0AD099
:1024B0007B681868BB691969BB691A89BB699B6924
:1024C0009BB2FFF76FFC7B681B681A00BB691B7827
:1024D0009B00D3181B882A4A13409AB27B681B685A
:1024E0001900BB691B789B00CB1829490A4392B29B
:1024F0001A807B681B6850229B5A9BB21A00BB69EA
:102500001B78DB00D3181A007B681B68D3181F4A9E
:10251000944663441B889B059A0DBB699A61BB690D
:102520001A69BB699B69D218BB691A61BB695B698F
:10253000002B07D1BB691A787B681100180002F0E4
:10254000EBFA08E0BB691978BB691A69BB695B697A
:102550007868FFF7E3F87B681B6844229B5A9AB2BD
:102560000E23FB18111C198013B2002B00DAB2E401
:1025700000231800BD4609B090BDC0460604000007
:102580000F0F0000C080FFFF0F8FFFFF020400004D
:1025900080C0FFFF90B587B000AFF8600800110061
:1025A0007B600A243B19021C1A800823FB180A1CB2
:1025B0001A803B191B88802213409BB2002B0DD040
:1025C0000A23FB181B887F221A401300DB009B1A8A
:1025D0009B002833FA68D3187B610BE00A23FB18B1
:1025E0001A881300DB009B1A9B000933FF33FA683B
:1025F000D3187B610823FB181B88002B07D17B694C
:1026000000229A727B689AB27B699A800BE07B69A0
:1026100001229A727B689AB27B69DA807B681B0C14
:102620009AB27B691A8100231800BD4607B090BD9D
:1026300080B586B000AF786000233B617B681B6883
:102640000122134000D18DE0C54B5B680C22134082
:10265000042B0ED0C24B5B680C221340082B16D102
:10266000BF4B5A68C0235B021A4080235B029A4228
:102670000DD1BB4B1A6880239B02134000D170E040
:102680007B685B68002B00D06BE0012329E37B684B
:102690005B68012B07D1B24B1A68B14B802149020C
:1026A0000A431A602FE07B685B68002B0CD1AC4BAF
:1026B0001A68AB4BAB490A401A60A94B1A68A84B81
:1026C000A9490A401A601EE07B685B68052B0ED1A1
:1026D000A34B1A68A24B8021C9020A431A60A04B7F
:1026E0001A689F4B802149020A431A600BE09C4BF9
:1026F0001A689B4B9B490A401A60994B1A68984B81
:1027000099490A401A607B685B68002B14D0FDF77A
:10271000C3FD03003B6108E0FDF7BEFD02003B691D
:10272000D31A642B01D90323DBE28D4B1A68802373
:102730009B021340F0D015E0FDF7AEFD03003B61B6
:1027400008E0FDF7A9FD02003B69D31A642B01D90B
:102750000323C6E2824B1A6880239B021340F0D108
:1027600000E0C0467B681B680222134000D16CE089
:102770007B4B5B680C2213400ED0794B5B680C22BC
:102780001340082B1FD1764B5A68C0235B021A40B6
:1027900080231B029A4216D1714B1B680222134000
:1027A00005D07B68DB68012B01D0012399E26C4BDB
:1027B0001B68F822934319007B681B69DA00684B99
:1027C0000A431A6041E07B68DB68002B24D0644B2D
:1027D0001A68634B01210A431A60FDF75DFD03008F
:1027E0003B6108E0FDF758FD02003B69D31A022B5C
:1027F00001D9032375E25A4B1B6802221340F1D022
:10280000574B1B68F822934319007B681B69DA0059
:10281000534B0A431A6018E0514B1A68504B012180
:102820008A431A60FDF738FD03003B6108E0FDF7BD
:1028300033FD02003B69D31A022B01D9032350E276
:10284000474B1B6802221340F1D17B681B680822AA
:10285000134036D07B68DB69002B19D0404B5A6A95
:102860003F4B01210A435A62FDF716FD03003B610D
:1028700008E0FDF711FD02003B69D31A022B01D9D4
:1028800003232EE2364B5B6A02221340F1D018E09C
:10289000334B5A6A324B01218A435A62FDF7FCFCE2
:1028A00003003B6108E0FDF7F7FC02003B69D31A27
:1028B000022B01D9032314E2294B5B6A0222134045
:1028C000F1D17B681B680422134000D1B6E01723C6
:1028D000FB1800221A70224BDA6980235B05134033
:1028E00011D11F4BDA691E4B802149050A43DA6179
:1028F0001B4BDA6980235B051340FB60FB681723E1
:10290000FB1801221A70194B1A6880235B001340D0
:102910001AD1164B1A68154B802149000A431A60D8
:10292000FDF7BAFC03003B6108E0FDF7B5FC0200CF
:102930003B69D31A642B01D90323D2E10B4B1A68EC
:1029400080235B001340F0D07B689B68012B0FD184
:10295000034B1A6A024B01210A431A6236E0C04651
:1029600000100240FFFFFEFFFFFFFBFF0070004072
:102970007B689B68002B0CD1CA4B1A6AC94B01219A
:102980008A431A62C74B1A6AC64B04218A431A62E9
:102990001CE07B689B68052B0CD1C24B1A6AC14BAB
:1029A00004210A431A62BF4B1A6ABE4B01210A4333
:1029B0001A620BE0BB4B1A6ABA4B01218A431A62B6
:1029C000B84B1A6AB74B04218A431A627B689B682A
:1029D000002B14D0FDF760FC03003B6109E0FDF71C
:1029E0005BFC02003B69D31AAF4A934201D903232F
:1029F00077E1AC4B1B6A02221340F0D013E0FDF7E5
:102A00004BFC03003B6109E0FDF746FC02003B691B
:102A1000D31AA54A934201D9032362E1A14B1B6A51
:102A200002221340F0D11723FB181B78012B05D18C
:102A30009C4BDA699B4B9D490A40DA617B681B68B5
:102A40001022134063D07B685B69012B2AD1954B20
:102A50005A6B944B04210A435A63924B5A6B914B25
:102A600001210A435A63FDF717FC03003B6108E0AC
:102A7000FDF712FC02003B69D31A022B01D9032394
:102A80002FE1884B5B6B02221340F1D0854B5B6BCF
:102A9000F822934319007B689B69DA00814B0A4353
:102AA0005A6334E07B685B69053311D17D4B5A6B07
:102AB0007C4B04218A435A637A4B5B6BF822934325
:102AC00019007B689B69DA00764B0A435A631EE063
:102AD000744B5A6B734B04210A435A63714B5A6B04
:102AE000704B01218A435A63FDF7D6FB03003B611B
:102AF00008E0FDF7D1FB02003B69D31A022B01D994
:102B00000323EEE0674B5B6B02221340F1D17B683D
:102B10001B68202213405CD0624B5B680C22134080
:102B20000C2B0ED05F4B5B680C221340082B14D18A
:102B30005C4B5A68C0235B021A40C0235B029A4276
:102B40000BD1584B5A6B80235B02134040D07B68FB
:102B50001B6A012B3CD00123C3E07B681B6A002B5E
:102B60001BD0504B5A6B4F4B802149020A435A638A
:102B7000FDF792FB03003B6108E0FDF78DFB0200CF
:102B80003B69D31A022B01D90323AAE0454B5A6BA8
:102B900080235B021340F0D01BE0424B5A6B414B49
:102BA00043490A405A63FDF777FB03003B6108E0A5
:102BB000FDF772FB02003B69D31A022B01D90323F4
:102BC0008FE0384B5A6B80235B021340F0D100E05A
:102BD000C0467B685B6A002B00D181E0314B5B68AB
:102BE0000C221340082B00D178E07B685B6A022B33
:102BF0004CD12C4B1A682B4B2E490A401A60FDF71A
:102C00004BFB03003B6108E0FDF746FB02003B691C
:102C1000D31A022B01D9032363E0224B1A688023C5
:102C20009B041340F0D11F4BDB6A0F229343190022
:102C30007B681A6B1B4B0A43DA621A4B5B681E4AAD
:102C4000134019007B68DA6A7B689B6A1A43154B4C
:102C50000A435A60134B1A68124B802149040A43F5
:102C60001A60FDF719FB03003B6108E0FDF714FB58
:102C700002003B69D31A022B01D9032331E0094B2F
:102C80001A6880239B041340F0D029E0054B1A6892
:102C9000044B08490A401A60FDF7FEFA03003B6145
:102CA00015E0C0460010024088130000FFFFFFEF50
:102CB000FFFFFEFFFFFFFFFEFF7FC2FFFDF7ECFA05
:102CC00002003B69D31A022B01D9032309E0074B09
:102CD0001A6880239B041340F0D101E0012300E037
:102CE00000231800BD4606B080BDC046001002405B
:102CF00080B584B000AF786039600023FB607B4B07
:102D00001B68012213403A689A4211D9774B1B681D
:102D1000012293431900754B3A680A431A60734BBA
:102D20001B68012213403A689A4201D00123D8E07F
:102D30007B681B680222134009D06D4B5B68F02250
:102D4000934319007B689A68694B0A435A607B6811
:102D50001B680122134000D189E07B685B68012B6E
:102D600007D1634B1A6880239B02134020D10123B3
:102D7000B7E07B685B68022B07D15D4B1A68802344
:102D80009B04134014D10123ABE07B685B68032BE9
:102D900007D1574B5A6B80235B02134008D10123A4
:102DA0009FE0534B1B680222134001D1012398E09E
:102DB0004F4B5B680322934319007B685A684C4B66
:102DC0000A435A60FDF768FA0300FB607B685B68A2
:102DD000012B11D109E0FDF75FFA0200FB68D31A5D
:102DE000444A934201D903237BE0414B5B680C22A8
:102DF0001340042BEFD13AE07B685B68022B11D1C2
:102E000009E0FDF749FA0200FB68D31A394A9342F8
:102E100001D9032365E0364B5B680C221340082B75
:102E2000EFD124E07B685B68032B1BD109E0FDF741
:102E300033FA0200FB68D31A2E4A934201D90323C6
:102E40004FE02B4B5B680C2213400C2BEFD10EE0B4
:102E5000FDF722FA0200FB68D31A264A934201D9F1
:102E600003233EE0224B5B680C221340F0D11F4B42
:102E70001B68012213403A689A4211D21B4B1B680F
:102E8000012293431900194B3A680A431A60174B01
:102E90001B68012213403A689A4201D0012320E0C6
:102EA0007B681B680422134009D0114B5B68124AEF
:102EB000134019007B68DA680D4B0A435A6000F032
:102EC00021F801000A4B5B681B090F2213400B4AD3
:102ED000D35C0A00DA400A4B1A600020FDF7B4F90F
:102EE00000231800BD4604B080BDC046002002404B
:102EF0000010024088130000FFF8FFFF1C55000877
:102F0000EC00002090B58FB000AF1423FB18374AB7
:102F100013CA13C312681A603B1D354A13CA13C380
:102F200012681A600023FB620023BB6200237B63EC
:102F300000237B6200233B632E4B5B68FB62FB6AD2
:102F40000C221340082B06D00C2B43D0042B44D169
:102F5000294B3B6344E0FB6A9B0C0F221340142275
:102F6000BA18D35C7B62234BDB6A0F2213403A1DF5
:102F7000D35CBB62FA6AC0235B021A4080235B0207
:102F80009A4209D1B96A1C48FDF7BEF803001A003D
:102F90007B6A53437B631AE0FA6AC0235B021A40E0
:102FA000C0235B029A4209D1B96A1448FDF7ACF814
:102FB00003001A007B6A53437B6308E0B96A0E483A
:102FC000FDF7A2F803001A007B6A53437B637B6B17
:102FD0003B6305E0094B3B6302E0074B3B63C046A4
:102FE0003B6B1800BD460FB090BDC0461C54000896
:102FF0002C5400080010024000127A00006CDC0221
:1030000080B500AF024B1B681800BD4680BDC046AE
:10301000EC00002080B586B000AF786000233B61F3
:103020000023FB607B681A6880235B02134000D199
:103030008FE01723FB1800221A70674BDA69802390
:103040005B05134011D1644BDA69634B802149055C
:103050000A43DA61604BDA6980235B051340BB6089
:10306000BB681723FB1801221A705C4B1A68802377
:103070005B0013401AD1594B1A68584B8021490004
:103080000A431A60FDF708F903003B6108E0FDF709
:1030900003F902003B69D31A642B01D9032397E09B
:1030A0004E4B1A6880235B001340F0D04A4B1A6ADB
:1030B000C0239B001340FB60FB68002B34D07B686F
:1030C0005A68C0239B001340FA689A422CD0424BA6
:1030D0001B6A434A1340FB603F4B1A6A3E4B8021F8
:1030E00049020A431A623C4B1A6A3B4B3D490A406B
:1030F0001A62394BFA681A62FB680122134013D036
:10310000FDF7CAF803003B6109E0FDF7C5F80200CE
:103110003B69D31A344A934201D9032358E02E4B1A
:103120001B6A02221340F0D02B4B1B6A2C4A13401F
:1031300019007B685A68284B0A431A621723FB1848
:103140001B78012B05D1244BDA69234B27490A4010
:10315000DA617B681B680122134009D01E4B1B6B90
:103160000322934319007B689A681B4B0A431A6336
:103170007B681B682022134009D0174B1B6B102261
:10318000934319007B68DA68134B0A431A637B6820
:103190001A6880239B02134009D00F4B1B6B8022BF
:1031A000934319007B685A690B4B0A431A637B6887
:1031B0001A688023DB00134009D0074B1B6B4022A9
:1031C000934319007B681A69034B0A431A6300236F
:1031D0001800BD4606B080BD0010024000700040DF
:1031E000FFFCFFFFFFFFFEFF88130000FFFFFFEF64
:1031F00080B584B000AF78600A00FB1C1A700F2302
:10320000FB1800221A70786809230322812101F03B
:1032100085FD102001F00AFF01007A6886239B00DB
:10322000D1507A6886239B00D358002B04D10F23FA
:10323000FB1801221A7005E07A6886239B00D35898
:1032400000221A730F23FB181B781800BD4604B028
:1032500080BD80B582B000AF78600A00FB1C1A7098
:103260007B688121180001F090FD7A6886239B001D
:10327000D358002B0BD07A6886239B00D3581800B4
:1032800001F0E0FE7A6886239B000021D1500023E4
:103290001800BD4602B080BD80B586B000AF786032
:1032A00039601623FB1800221A8000233B617A68DC
:1032B00086239B00D358FB603B681B781A00602371
:1032C000134036D0202B00D077E03B685B78032B8F
:1032D0000ED002DC022B1BD022E00A2B0FD00B2BCE
:1032E0001ED13B685B88DBB21A00FB681A601FE0E6
:1032F000F9687B680122180001F060F818E03B686B
:103300005B881B0A9BB2DBB21A00FB685A600FE0B5
:10331000FB68191D7B680122180001F04FF807E0D7
:103320003A687B681100180000F0C8FF022345E0EE
:1033300043E03B685B780A2B2FD00B2B36D0062B53
:103340003BD13B685B881B0A9BB2222B0BD13B68AD
:10335000DB881622BA1899B2752900D97523138013
:10336000184B3B6110E03B685B881B0A9BB2212B2A
:103370000AD1154B3B613B68DB881622BA1899B21B
:10338000092900D9092313801623FB181A883969E3
:103390007B68180001F012F80FE0FB680833190091
:1033A0007B680122180001F009F806E03B685B88A1
:1033B000DBB21A00FB689A60C04600231800BD46C5
:1033C00006B080BD740000205C00002080B586B08F
:1033D00000AFF860B960BB1D1A80FA6886239B00B5
:1033E000D3587B61FA68FE235B00D35C032B0DD1BD
:1033F0007B691B7B002B09D17B6901221A73BB1DE2
:103400001B88BA68F868812101F0A0FD002318002C
:10341000BD4606B080BD000080B582B000AF7860C8
:103420007B6822221A80024B1800BD4602B080BD84
:103430003800002080B582B000AF78600A00FB1C25
:103440001A707A6886239B00D35800221A730023CF
:103450001800BD4602B080BD80B582B000AF786074
:103460007B680A221A80024B1800BD4602B080BD5C
:103470006800002080B584B000AFF860B960FB1D23
:103480001A70FB68002B01D1022320E0FA68852323
:103490009B00D358002B04D0FA6885239B000021A1
:1034A000D150BB68002B04D0FA6884239B00B96814
:1034B000D150FA68FE235B000121D154FB68FA1D4C
:1034C00012781A70FB68180001F0B2FB0023180094
:1034D000BD4604B080BD80B584B000AF786039606F
:1034E0000F23FB1800221A703B68002B09D07A6862
:1034F00085239B003968D1500F23FB1800221A70D6
:1035000003E00F23FB1802221A700F23FB181B780D
:103510001800BD4604B080BD80B582B000AF7860B1
:103520007B68180001F0D4FB00231800BD4602B0F0
:1035300080BD80B582B000AF786000231800BD4622
:1035400002B080BD80B584B000AF78600A00FB1C7B
:103550001A700F23FB1802221A707A6885239B00C9
:10356000D358002B0FD07A6885239B00D3581B6853
:10357000FA1C11787A6810009847031E03D10F23B4
:10358000FB1800221A700F23FB181B781800BD4689
:1035900004B080BD80B582B000AF78600A00FB1C2B
:1035A0001A707A6885239B00D3585B68FA1C1178DF
:1035B0007A681000984700231800BD4602B080BD0D
:1035C00080B582B000AF786039607B68822292005B
:1035D000944663443A681100180000F034FE7A689B
:1035E000FA235B000121D1507B68224A9B5A1900C3
:1035F0007A68FC235B00D1507A6882239B00D35CFD
:103600001A001F231340012B0DD0022B15D0002BC5
:103610001DD17B68822292009A187B6811001800E5
:1036200000F0BEF920E07B68822292009A187B6845
:103630001100180000F008FA16E07B688222920060
:103640009A187B681100180000F03DFA0CE07A68C7
:1036500082239B00D35C7F229343DAB27B68110004
:10366000180001F0BEFBC04600231800BD4602B0A2
:1036700080BDC0460E02000080B586B000AFF86085
:103680007A600B203B180A1C1A703B181B78002B21
:103690003ED1FB680533FF337B61FA68FA235B0098
:1036A000D358032B4CD17B699A687B69DB689A42BB
:1036B00014D97B699A687B69DB68D21A7B699A6046
:1036C0007B69DA687B699B689A4200D91A0092B2DA
:1036D0007968FB68180000F0A4FE31E0FA688523E1
:1036E0009B00D3581B69002B0DD0FA68FE235B00AA
:1036F000D35C032B07D1FA6885239B00D3581B6941
:10370000FA6810009847FB68180000F09DFE17E06B
:10371000FA6885239B00D3589B69002B10D0FA6868
:10372000FE235B00D35C032B0AD1FA6885239B0040
:10373000D3589B690B22BA181178FA681000984781
:1037400000231800BD4606B080BD80B586B000AF2E
:10375000F8607A600B203B180A1C1A703B181B7823
:10376000002B00D077E0FB6814337B61FA68FA2302
:103770005B00D358022B5ED17B699A687B69DB685A
:103780009A4215D97B699A687B69DB68D21A7B6992
:103790009A607B699B689AB27968FB68180000F0B0
:1037A0002DFEF86800230022002101F007FC42E012
:1037B0007B695A687B69DB6819001000FCF72AFDF9
:1037C0000B1E1FD17B695A687B69DB689A4219D34B
:1037D0007B695A68F968FC235B00CB589A4211D286
:1037E000FB6800220021180000F008FEFA68FC23A4
:1037F0005B000021D150F86800230022002101F075
:10380000DDFB18E0FA6885239B00D358DB68002BAA
:103810000DD0FA68FE235B00D35C032B07D1FA6856
:1038200085239B00D358DB68FA6810009847FB6833
:10383000180000F01DFEFA6880239B00D35C012B6A
:1038400021D1FB681800FFF774FEFA6880239B0003
:103850000021D15417E0FA6885239B00D3585B6997
:10386000002B10D0FA68FE235B00D35C032B0AD137
:10387000FA6885239B00D3585B690B22BA1811782C
:10388000FA681000984700231800BD4606B080BDB6
:1038900080B582B000AF78607868402300220021B4
:1038A00001F03CFA7A6888235B004021D1507868A7
:1038B00040230022802101F031FA7B6840221A6205
:1038C0007A68FE235B000121D1547A6886239B002D
:1038D000D358002B0AD07A6885239B00D3585A68A6
:1038E0007B685B68D9B27B6818009047002318009A
:1038F000BD4602B080BD80B582B000AF78600A00DE
:10390000FB1C1A707B68FA1C12781A7400231800CA
:10391000BD4602B080BD80B582B000AF78607A68E5
:10392000FE235B00D15C7A68FE23FF33D1547A68B2
:10393000FE235B000421D15400231800BD4602B0D1
:1039400080BD80B582B000AF78607A68FE23FF3317
:10395000D15C7A68FE235B00D15400231800BD4679
:1039600002B080BD80B582B000AF78607A68FE2377
:103970005B00D35C032B0ED17A6885239B00D35860
:10398000DB69002B07D07A6885239B00D358DB695D
:103990007A681000984700231800BD4602B080BD29
:1039A00080B584B000AF786039600F23FB18002227
:1039B0001A703B685B78092B35D89A00214BD318D5
:1039C0001B689F463A687B681100180000F092F966
:1039D00030E03A687B681100180000F095FA29E0A1
:1039E0003A687B681100180000F0DCFA22E03A68BF
:1039F0007B681100180000F071FB1BE03A687B68DF
:103A00001100180000F0A2FB14E03A687B68110076
:103A1000180000F0CAFB0DE03A687B68110018003E
:103A200000F0E2FB06E03A687B681100180000F045
:103A300045FCC0460F23FB181B781800BD4604B098
:103A400080BDC0463C54000880B584B000AF7860AB
:103A500039600F23FB1800221A707A68FE235B007E
:103A6000D35C032B22D13B689B88DBB2022B16D898
:103A70007A6885239B00D3589B6839687A68100060
:103A800098473B68DB88002B17D10F23FB181B7866
:103A9000002B12D17B68180000F0D6FC0DE03A68CC
:103AA0007B681100180000F009FC06E03A687B68AA
:103AB0001100180000F002FC00E0C04600231800CE
:103AC000BD4604B080BD80B584B000AF7860396079
:103AD0000F23FB1800221A703B689A880E23FB18EC
:103AE0001A703B681B781A0060231340202B0AD100
:103AF0007A6885239B00D3589B6839687A681000E0
:103B000098470023F1E03B685B78012B4ED0032BF4
:103B100003D0002B00D190E0E4E07A68FE235B0044
:103B2000D35C022B02D0032B13D036E00E23FB18FC
:103B30001B78002B38D00E23FB181B78802B33D03A
:103B40000E23FB181A787B681100180001F049F960
:103B50002AE03B685B88002B11D10E23FB181B78F1
:103B6000002B0CD00E23FB181B78802B07D00E23C4
:103B7000FB181A787B681100180001F032F97A6896
:103B800085239B00D3589B6839687A681000984752
:103B90007B68180000F058FC07E03A687B68110069
:103BA000180000F08BFB00E0C0469BE07A68FE2323
:103BB0005B00D35C022B02D0032B13D032E00E2328
:103BC000FB181B78002B34D00E23FB181B78802B9E
:103BD0002FD00E23FB181A787B681100180001F013
:103BE00000F926E03B685B88002B24D10E23FB18EC
:103BF0001B787F22134010D00E23FB181A787B68A5
:103C00001100180001F019F97A6885239B00D35838
:103C10009B6839687A68100098477B68180000F044
:103C200013FC08E03A687B681100180000F046FBBE
:103C300002E0C04656E0C04654E07A68FE235B00CE
:103C4000D35C022B02D0032B0FD042E00E23FB18D3
:103C50001B787F22134043D00E23FB181A787B6811
:103C60001100180001F0BDF83AE00E23FB181B7894
:103C70005BB2002B0ADA0E23FB181B787F2213405D
:103C800001331B017A68D318043309E00E23FB18B3
:103C90001B787F22134010331B017A68D31804333A
:103CA000BB600E23FB181A787B681100180001F026
:103CB000F0F8031E03D0BB6801221A6002E0BB6863
:103CC00000221A60B9687B680222180000F076FBB7
:103CD00007E03A687B681100180000F0EFFA00E096
:103CE000C046C0460F23FB181B781800BD4604B021
:103CF00080BD000080B584B000AF786039603B685B
:103D00005B881B0A9BB2072B00D9CEE09A007C4B44
:103D1000D3181B689F467A6884239B00D3581B687E
:103D20007A68127C0A217918100098470300FB601A
:103D3000C2E07B681B7C002B0FD17A6885239B0037
:103D4000D3589B6A0A22BA18100098470300FB60F8
:103D5000FB68013302221A70AEE07A6885239B006B
:103D6000D358DB6A0A22BA18100098470300FB6098
:103D7000FB68013302221A709EE03B685B88DBB26D
:103D8000052B58D89A005F4BD3181B689F467A685A
:103D900084239B00D3585B687A68127C0A217918C7
:103DA000100098470300FB604CE07A6884239B0076
:103DB000D3589B687A68127C0A21791810009847BA
:103DC0000300FB603EE07A6884239B00D358DB68E5
:103DD0007A68127C0A217918100098470300FB606A
:103DE00030E07A6884239B00D3581B697A68127C80
:103DF0000A217918100098470300FB6022E07A68D6
:103E000084239B00D3585B697A68127C0A21791855
:103E1000100098470300FB6014E07A6884239B003D
:103E2000D3589B697A68127C0A2179181000984748
:103E30000300FB6006E03A687B681100180000F0A0
:103E40003DFA59E038E07B681B7C002B0BD17A6887
:103E500085239B00D3585B6B0A22BA181000984741
:103E60000300FB6028E03A687B681100180000F04E
:103E700025FA41E07B681B7C002B0FD17A688523F3
:103E80009B00D3581B6B0A22BA18100098470300F6
:103E9000FB60FB68013307221A700DE03A687B680B
:103EA0001100180000F00AFA26E03A687B68110059
:103EB000180000F003FA1FE00A23FB181B88002BF0
:103EC0001AD03B68DB88002B16D03B68DA880A23BF
:103ED000FB181B88181C111C8AB283B29A4200D9A5
:103EE000011C8AB20A217B181A807B181A88F9688B
:103EF0007B68180000F062FABD4604B080BDC04681
:103F0000645400088454000890B585B000AF786010
:103F100039603B689B88002B3AD13B68DB88002BDB
:103F200036D13B685B88DAB20F23FB187F210A4049
:103F30001A707A68FE235B00D35C032B06D13A68C3
:103F40007B681100180000F0B9F927E07A680F24A7
:103F50003919FF235B000978D1543B191A787B6823
:103F60001100180000F0C6FF7B68180000F06CFA22
:103F70003B191B78002B05D07A68FE235B000221D9
:103F8000D1540BE07A68FE235B000121D15405E097
:103F90003A687B681100180000F090F9C046BD46F1
:103FA00005B090BD80B582B000AF786039603B68E5
:103FB0005B88DAB2484B1A70474B1B78012B06D945
:103FC0003A687B681100180000F078F981E07A689F
:103FD000FE235B00D35C022B02D0032B29D071E0BF
:103FE0003D4B1B78002B1FD03B4B1B781A007B6886
:103FF0005A607A68FE235B000321D154364B1A784D
:104000007B6811001800FFF79DFA0300022B06D110
:104010003A687B681100180000F050F959E07B689D
:10402000180000F011FA54E07B68180000F00CFA58
:104030004FE0294B1B78002B15D17A68FE235B00DB
:104040000221D154244B1B781A007B685A60224B02
:104050001A787B6811001800FFF79CFA7B6818003B
:1040600000F0F2F935E01C4B1B781A007B685B68A6
:104070009A4222D07B685B68DAB27B681100180034
:10408000FFF788FA144B1B781A007B685A60124BB2
:104090001A787B6811001800FFF754FA0300022B0E
:1040A00006D13A687B681100180000F007F910E0AB
:1040B0007B68180000F0C8F90BE07B68180000F07E
:1040C000C3F906E03A687B681100180000F0F6F8C2
:1040D000C046BD4602B080BD5C01002080B582B004
:1040E00000AF786039603B68DB88012B06D03A6806
:1040F0007B681100180000F0E1F823E07A68FE23E5
:104100005B00D35C022B02D0032B0CD013E07B6846
:1041100000229A607B68083319007B68012218002E
:1041200000F04CF90EE07B68191D7B680122180035
:1041300000F044F906E03A687B681100180000F0CE
:10414000BDF8C046C046BD4602B080BD80B582B055
:1041500000AF786039607A68FE235B00D35C023B75
:10416000012B17D87B680122DA607A6881239B00D3
:10417000D358002B05D07B68DB6802221A437B688A
:10418000DA607B680C3319007B680222180000F0AB
:1041900015F906E03A687B681100180000F08EF807
:1041A000C046C046BD4602B080BD80B582B000AFFB
:1041B000786039603B685B88012B11D17A68812374
:1041C0009B000121D1507A6885239B00D3589B68BE
:1041D00039687A68100098477B68180000F034F955
:1041E000C046BD4602B080BD80B582B000AF7860E9
:1041F00039607A68FE235B00D35C023B012B16D842
:104200003B685B88012B19D17A6881239B000021D0
:10421000D1507A6885239B00D3589B6839687A68A7
:10422000100098477B68180000F00EF906E03A6825
:104230007B681100180000F041F800E0C046C0465D
:10424000BD4602B080BD80B582B000AF78603960F5
:104250003B681A787B681A703B685A787B685A709A
:104260003B6802331B789AB23B6803331B789BB2DE
:104270001B029BB2D3189AB27B685A803B68043306
:104280001B789AB23B6805331B789BB21B029BB22A
:10429000D3189AB27B689A803B6806331B789AB22F
:1042A0003B6807331B789BB21B029BB2D3189AB2B0
:1042B0007B68DA80C046BD4602B080BD80B582B062
:1042C00000AF786039607B688021180000F089FDBC
:1042D0007B680021180000F084FDC046BD4602B096
:1042E00080BD90B587B000AFF860B9607A601723E1
:1042F000FB1800221A70FB68002B3ED0FB681800E8
:1043000000F03FF8030001339BB2DB189AB27B68E0
:104310001A807B68198817243B191B783A19581C96
:1043200010701A00BB689B18CAB21A703B191B7830
:104330003A19591C11701A00BB689B1803221A7095
:1043400017E0FB685A1CFA6017243A1912783919D9
:10435000501C08701100BA6852181B7813703B1972
:104360001B783A19591C11701A00BB689B1800225F
:104370001A70FB681B78002BE3D1C046BD4607B01E
:1043800090BD80B584B000AF78600F23FB18002289
:104390001A7008E00F217B181A787B1801321A7006
:1043A0007B6801337B607B681B78002BF2D10F2385
:1043B000FB181B781800BD4604B080BD80B584B0E2
:1043C00000AFF860B960BB1D1A80FA68FA235B0081
:1043D0000221D150BB1D1A88FB689A61BB1D1A8847
:1043E000FB68DA61BB1D1B88BA68F868002100F021
:1043F000ADFD00231800BD4604B080BD80B584B07B
:1044000000AFF860B960BB1D1A80BB1D1B88BA687D
:10441000F868002100F09AFD00231800BD4604B0A2
:1044200080BD80B584B000AFF860B960BB1D1A8054
:10443000BB1D1B88BA68F868002100F0BFFD00238F
:104440001800BD4604B080BD80B582B000AF786072
:104450007A68FA235B000421D15078680023002297
:10446000002100F073FD00231800BD4602B080BD9E
:1044700080B582B000AF78607A68FA235B000521CE
:10448000D150786800230022002100F097FD00231E
:104490001800BD4602B080BD80B582B000AF0200FA
:1044A000FB1D1A70FB1D1B781A001F231A40044BBA
:1044B000012191400A001A60C046BD4602B080BD8D
:1044C00000E100E080B582B000AF2D4BDA692C4BE3
:1044D00002210A43DA612B4B06229A62294BFA2207
:1044E0009200DA62274BDA68264B01210A43DA6030
:1044F000244B1A68234B01210A431A601020FFF74E
:10450000CBFF00237B600EE01F4B7A68D2000021B6
:10451000D1501D4A7B68DB00D318043300221A6097
:104520007B6801337B607B680F2BEDDD144B5A6990
:10453000134B8C21C9030A435A6100233B6018E0E6
:10454000124B3A68D200D358DA6810493B68DB0056
:10455000CB1804331B885B00012199400B00180025
:104560000A4B3968C900CB580243DA603B68013313
:104570003B603B680F2BE3DDC046BD4602B080BD0B
:104580000010024000040040780100209C54000804
:1045900080B582B000AF394B1B690122134068D04F
:1045A000364B1A69354B01218A431A6100237B601F
:1045B0005BE0334B7A68D200D3581B6930497A6884
:1045C000D2008A1804321288110001228A40134056
:1045D0003B602B4A7B68DB00D31804331B881A002E
:1045E0003B68D3403B60274B7A68D200D3585900D0
:1045F000244B7A68D200D150224B7A68D200D2582C
:104600003B681A4311001F4B7A68D200D1501D4BF2
:104610007A68D200D35801330FD11A4A7B68DB0085
:10462000D31804331B68002B07D1164A7B68DB00C4
:10463000D318043301221A6014E0124B7A68D200B6
:10464000D358002B0ED10F4A7B68DB00D3180433FC
:104650001B68002B06D00B4A7B68DB00D3180433A1
:1046600000221A607B6801337B607B680F2BA0DD22
:1046700000E0C046BD4602B080BDC0460004004018
:104680009C5400087801002080B500AF184B9A694F
:10469000174B802189000A439A61164B1A69154B02
:1046A000802109060A431A61124B60229A62114B5B
:1046B0005A69104B03210A435A610E4B1B680122B1
:1046C000134005D00B4B1A680A4B01210A431A60AC
:1046D000084B9A68074B01210A439A60C046054B74
:1046E0001B6801221340FAD0C046BD4680BDC046BB
:1046F000001002400024014080B582B000AF786015
:104700003960104B9A680F4B04210A439A60C046E7
:104710000C4B1B6804221340FAD00A4B1B6C9AB254
:104720007B681A80C046074B1B6804221340FAD0EE
:10473000044B1B6C9AB23B681A80C046BD4602B05F
:1047400080BDC04600240140B0B588B000AFFBF783
:1047500067FD00F075F800F05BF9FFF795FFFFF7D4
:10476000B1FE9023DB051B69BB611F23FB180022F0
:104770001A70BB690122134003D11F23FB181422B6
:104780001A7012243A1914257B1911001800FFF72A
:10479000B3FF7B191B889B099BB2DBB21C22D31A87
:1047A000DAB217203B181A703B191B889B099BB281
:1047B000DBB21F3BDAB216243B191A700C217B18AE
:1047C00002221A707B1800225A707B183A1812784D
:1047D0009A707B183A191278DA703B0001221A702D
:1047E0003B0000225A703B0000229A703B001F22BF
:1047F000BA181278DA703B0000221A713B000022CE
:104800005A713B0000229A713B000022DA713B0092
:1048100000221A727918094B04221800FEF7D6FDFF
:104820000A20FBF743FD3900044B09221800FEF76C
:10483000CDFD0A20FBF73AFD93E7C046F8010020C2
:1048400090B599B000AF2C243B19180034231A00FE
:10485000002100F0CFFD1C23FB18180010231A00C4
:10486000002100F0C7FD3B1D180018231A0000218D
:1048700000F0C0FD3B1920221A603B1901221A6288
:104880003B1900225A623B191800FDF7D1FE031EA6
:1048900001D000F029F81C217B1807221A607B1830
:1048A00003225A607B1800229A607B180022DA608B
:1048B0007B1801211800FEF71BFA031E01D000F03F
:1048C00013F83B1D802292021A603B1D00225A61A0
:1048D0003B1D1800FEF79EFB031E01D000F004F8FC
:1048E000C046BD4619B090BD80B500AFC046BD46BC
:1048F00080BD000080B582B000AF0F4B9A690E4BAF
:1049000001210A439A610C4B9B69012213407B6091
:104910007B68094BDA69084B802149050A43DA6153
:10492000054BDA6980235B0513403B603B68C0465A
:10493000BD4602B080BDC0460010024080B500AF49
:10494000C046BD4680BD80B500AFFEE780B500AF74
:10495000C046BD4680BD80B500AFC046BD4680BDE7
:1049600080B500AFFBF78CFCC046BD4680BD0000A3
:1049700080B500AF034B1800FBF798FEC046BD465C
:1049800080BDC0461C04002080B500AF1A4B1A68D9
:10499000194B01210A431A60174B5A68164B1749E5
:1049A0000A405A60144B1A68134B15490A401A60A2
:1049B000114B1A68104B13490A401A600E4B5A6883
:1049C0000D4B11490A405A600B4BDA6A0A4B0F2112
:1049D0008A43DA62084B1A6B074B0C490A401A6388
:1049E000054B5A6B044B01218A435A63024B002248
:1049F0009A60C046BD4680BD001002400CB8FF085A
:104A0000FFFFF6FEFFFFFBFFFFFFC0FF2CFEFFFFD7
:104A100080B500AF0F49104B00221800FEF72AFDA9
:104A2000031E01D0FFF760FF0C4A0B4B110018006A
:104A3000FEF751FD031E01D0FFF756FF064B18008D
:104A4000FEF76AFD031E01D0FFF74EFFC046BD46CC
:104A500080BDC046F0000020F801002000000020CA
:104A600080B584B000AF78607B681B680E4A9342C3
:104A700015D10E4BDA690D4B802109040A43DA6126
:104A80000A4BDA6980231B041340FB60FB68002299
:104A900000211F20FBF7D0FC1F20FBF7E2FCC046E3
:104AA000BD4604B080BDC046005C0040001002401E
:104AB00080B582B000AF78607A6887239B00D258B7
:104AC0007B68ED33FF3319001000FEF779FDC04617
:104AD000BD4602B080BD90B583B000AF78600A00DB
:104AE000FB1C1A707A6887239B00D458FB1C1A7829
:104AF00078688C2359001300DB009B1A9B00C318B5
:104B00005B181A68FB1C1B7819002000FEF7B4FD27
:104B1000C046BD4603B090BD80B582B000AF78609E
:104B20000A00FB1C1A707A6887239B00D058FB1C74
:104B30001A7879681300DB009B1A9B00CB18383376
:104B40001A68FB1C1B781900FEF7FFFDC046BD4626
:104B500002B080BD80B582B000AF78607A688723EC
:104B60009B00D3581800FEF7FDFEC046BD4602B0BC
:104B700080BD80B584B000AF78600F23FB180122A0
:104B80001A707B689B68022B01D0FFF7ADFE7A6834
:104B900087239B00D2580F23FB181B7819001000A5
:104BA000FEF7A9FE7A6887239B00D3581800FEF70A
:104BB0006FFEC046BD4604B080BD000080B582B027
:104BC00000AF78607A6887239B00D3581800FEF7FF
:104BD000A2FE7B689B69002B05D0054B1A69044B2C
:104BE00006210A431A61C046BD4602B080BDC046D8
:104BF00000ED00E080B582B000AF78607B689B6913
:104C0000002B07D0094B1A69084B06218A431A6109
:104C100000F020FA7A6887239B00D3581800FEF72B
:104C200090FEC046BD4602B080BDC04600ED00E02B
:104C300080B582B000AF7860234A87239B007968F3
:104C4000D1507A6888239B001F49D1501E4B1F4AC0
:104C50001A601D4B08225A601B4B02229A601A4BA5
:104C600002221A61184B00229A61174B0022DA6166
:104C7000154B00221A62144B1800FBF70FFC031EA1
:104C800001D0FFF731FE7A6888239B00D0581823A3
:104C900000220021FDF77EFC7A6888239B00D05813
:104CA000582300228021FDF775FC7A6888239B0039
:104CB000D05880235B0000228121FDF76BFC00238C
:104CC0001800BD4602B080BD1C040020005C0040FE
:104CD000F0B585B000AF78600F217B1800221A7004
:104CE0000E26BB1900221A707A6888239B00D358BD
:104CF0000D007C181800FBF7C1FC03002370BC19E1
:104D000029007B181B78180000F0ABF90300237012
:104D1000BB191B781800BD4605B0F0BDF0B585B0D5
:104D200000AF78600C0010001900FB1C221C1A70E8
:104D3000BB1C021C1A703B000A1C1A800F26BB19F0
:104D400000221A700E257B1900221A707A688823B7
:104D50009B00D058BC19BB1C1D783B001A88FB1C5B
:104D600019782B00FBF7F8FD030023700E257C1942
:104D7000BB191B78180000F074F9030023707B192D
:104D80001B781800BD4605B0F0BDF0B585B000AF8A
:104D900078600A00FB1C1A700F217B1800221A7021
:104DA0000E26BB1900221A707A6888239B00D258FD
:104DB0000D007C18FB1C1B7819001000FCF748F94B
:104DC00003002370BC1929007B181B78180000F021
:104DD00048F903002370BB191B781800BD4605B0C5
:104DE000F0BDF0B585B000AF78600A00FB1C1A700A
:104DF0000F217B1800221A700E26BB1900221A7090
:104E00007A6888239B00D2580D007C18FB1C1B7805
:104E100019001000FCF736FE03002370BC192900AE
:104E20007B181B78180000F01CF903002370BB19D5
:104E30001B781800BD4605B0F0BDF0B585B000AFD9
:104E400078600A00FB1C1A700F217B1800221A7070
:104E50000E26BB1900221A707A6888239B00D2584C
:104E60000D007C18FB1C1B7819001000FCF7BCFE21
:104E700003002370BC1929007B181B78180000F070
:104E8000F0F803002370BB191B781800BD4605B06D
:104E9000F0BD80B584B000AF78600A00FB1C1A70CA
:104EA0007A6888239B00D358FB60FB1C1B785BB29D
:104EB000002B0DDAFB1C1B787F221A40F9682A2090
:104EC0001300DB009B1A9B00CB181B181B780DE00E
:104ED000FB1C1B787F221A40F868852359001300B9
:104EE000DB009B1A9B00C3185B181B781800BD469B
:104EF00004B080BDF0B585B000AF78600A00FB1C3F
:104F00001A700F217B1800221A700E26BB1900227E
:104F10001A707A6888239B00D2580D007C18FB1CFD
:104F20001B7819001000FBF7E9FC03002370BC1983
:104F300029007B181B78180000F093F803002370F9
:104F4000BB191B781800BD4605B0F0BDF0B587B0A1
:104F500000AFF86008007A6019000B23FB18021CF0
:104F60001A7008243B190A1C1A8017217B1800228A
:104F70001A7016257B1900221A70FA6888239B0084
:104F8000D0583B191D880E007C187A680B23FB183B
:104F900019782B00FCF7C2FB0300237016257C193F
:104FA00031007B181B78180000F05BF803002370B9
:104FB0007B191B781800BD4607B0F0BDF0B587B06F
:104FC00000AFF86008007A6019000B23FB18021C80
:104FD0001A7008243B190A1C1A8017217B1800221A
:104FE0001A7016257B1900221A70FA6888239B0014
:104FF000D0583B191D880E007C187A680B23FB18CB
:1050000019782B00FCF70EFA0300237016257C1983
:1050100031007B181B78180000F023F80300237080
:105020007B191B781800BD4607B0F0BD80B582B073
:1050300000AF7860024B1800BD4602B080BDC0468C
:105040006001002080B582B000AF7860C046BD46E8
:1050500002B080BD80B500AFFFF7F2FBC046BD4691
:1050600080BD80B584B000AF0200FB1D1A700F2315
:10507000FB1800221A70FB1D1B78012B0DD002DCDF
:10508000002B05D018E0022B0CD0032B0FD013E01F
:105090000F23FB1800221A7013E00F23FB180222C3
:1050A0001A700EE00F23FB1801221A7009E00F237B
:1050B000FB1802221A7004E00F23FB1802221A7058
:1050C000C0460F23FB181B781800BD4604B080BDF6
:1050D00080B582B000AF02003960FB1D1A703B68DA
:1050E00012221A80024B1800BD4602B080BDC04695
:1050F0000C01002080B582B000AF02003960FB1DBA
:105100001A703B6804221A80024B1800BD4602B098
:1051100080BDC0462001002080B582B000AF0200F3
:105120003960FB1D1A70FB1D1B78002B06D13A68F5
:105130000849094B1800FFF7D4F805E03A6805491B
:10514000054B1800FFF7CDF8024B1800BD4602B022
:1051500080BDC0463C0600203455000880B582B0B2
:1051600000AF02003960FB1D1A703A680449054B14
:105170001800FFF7B6F8024B1800BD4602B080BD1C
:105180003C0600204C55000880B582B000AF0200FC
:105190003960FB1D1A703B681A221A8000F04CF827
:1051A000024B1800BD4602B080BDC046240100205D
:1051B00080B582B000AF02003960FB1D1A70FB1D84
:1051C0001B78002B06D13A680849094B1800FFF7F5
:1051D00088F805E03A680549054B1800FFF781F8A3
:1051E000024B1800BD4602B080BDC0463C06002000
:1051F0006055000880B582B000AF02003960FB1D29
:105200001A70FB1D1B78002B06D13A680849094B20
:105210001800FFF766F805E03A680549054B1800E5
:10522000FFF75FF8024B1800BD4602B080BDC046D4
:105230003C0600206C55000880B584B000AF104BD0
:105240001B68FB600F4B1B68BB600F4B1B687B60D0
:10525000FA687B68D318FB60FB68002B0BD00B4906
:10526000FB680822180000F015F80949BB68042201
:10527000180000F00FF8C046BD4604B080BDC0461F
:10528000ACF7FF1FB0F7FF1FB4F7FF1F2601002088
:105290003601002080B586B000AFF860B960FB1D14
:1052A0001A7017217B1800221A707B1800221A70BE
:1052B0002FE0FB681B0F092B0DD8FB681B0FDAB220
:1052C0001723FB181B785B001900BB685B18303292
:1052D000D2B21A700CE0FB681B0FDAB21723FB186E
:1052E0001B785B001900BB685B183732D2B21A70AA
:1052F000FB681B01FB6017217B181B785B000133E7
:10530000BA68D31800221A707B181A787B180132F9
:105310001A701723FA18FB1D12781B789A42C8D30B
:10532000C046BD4606B080BD134885461348016897
:10533000090E134A914205D11248134901601348DE
:105340001349016013481449144A002302E0D45859
:10535000C4500433C4188C42F9D3114A114C0023B1
:1053600001E013600432A242FBD3FFF70DFB00F013
:105370001DF8FFF7E9F9FEE700180020040000001F
:105380001F00000018100240010000000000014052
:1053900000000000000000204001002084550008AB
:1053A000400100203C080020FEE7000070B5002608
:1053B0000C4D0D4C641BA410A64209D1002600F030
:1053C00021F80A4D0A4C641BA410A64205D170BDF9
:1053D000B300EB5898470136EEE7B300EB58984717
:1053E0000136F2E77C5500087C5500087C55000822
:1053F0008055000803001218934200D170471970BD
:105400000133F9E7F8B5C046F8BC08BC9E467047C2
:0C541000F8B5C046F8BC08BC9E467047CA
:10541C0002030405060708090A0B0C0D0E0F1010E9
:10542C000102030405060708090A0B0C0D0E0F10E8
:10543C00FC390008183A0008263A00080A3A000815
:10544C00263A0008D2390008C4390008263A000868
:10545C00EE390008E0390008AA3E0008163D0008A5
:10546C00323D00087A3D0008AA3E0008AA3E00081A
:10547C00463E0008743E00088E3D0008AA3D000818
:10548C00C63D0008E23D0008FE3D00081A3E00083B
:10549C000000004800001E000000004801001F0032
:1054AC000000004803002000000000480400070032
:1054BC000000004807000900000000480800210017
:1054CC0000000048090005000004004800001C0012
:1054DC0000040048050014000004004806001A00EF
:1054EC0000040048070008000014004800001500E4
:1054FC000014004801001300000000480A000000DE
:10550C0000040048010000000004004804000000F2
:10551C000000000000000000010203040607080957
:10552C00000000000102030453544D33322048752F
:10553C006D616E20696E7465726661636500000052
:10554C0053544D6963726F656C656374726F6E69E9
:10555C006373000048494420436F6E66696700001E
:10556C0048494420496E74657266616365000000A9
:04557C00E90000083A
:04558000C10000085E
:10558400F13100085332000899320008000000008D
:105594000000000035340008000000000000000096
:1055A400000000000000000019340008193400084D
:1055B400193400085934000809022200010100E0EE
:1055C4003209040000010300000009211101000157
:1055D4002275000705810309000A00000921110151
:1055E40000012275000000000A06000200000040CD
:1055F4000100000005010906A1018501050719E064
:1056040029E71500250175019508810295017508A2
:105614008103950575010508190129059102950174
:10562400750391039506750815002565050719008E
:1056340029658100C005010902A1010901A10085B4
:105644000205091901290315002501950375018136
:10565400029501750581030501093009311581257C
:105664007F750895028106C0C000000000127A0010
:10567400D1500008F55000085D5100081951000888
:1056840089510008B1510008F551000812010002C7
:105694000000004083042B570002010203010000B4
:1056A400040309041A0300000000000000000000C5
:1056B40000000000000000000000000000000000E6
:040000050800532973
:00000001FF
