:020000040800F2
:1000000000180020013C0008DD350008E13500083B
:1000100000000000000000000000000000000000E0
:10002000000000000000000000000000E5350008AE
:100030000000000000000000E9350008ED35000870
:10004000813C0008813C0008813C0008813C00089C
:10005000813C0008813C0008813C0008813C00088C
:10006000813C0008813C0008813C0008813C00087C
:10007000813C0008813C0008813C0008813C00086C
:100080007D2E00080000000000000000813C0008F8
:1000900000000000813C0008813C0008813C000811
:1000A00000000000813C0008813C0008813C000801
:1000B000813C000800000000813C0008F535000884
:1000C00010B5064C2378002B07D1054B002B02D02E
:1000D000044800E000BF0123237010BD4001002050
:1000E00000000000DC3C0008044B10B5002B03D0DE
:1000F0000349044800E000BF10BDC04600000000F6
:1001000044010020DC3C0008002243088B4274D3E9
:1001100003098B425FD3030A8B4244D3030B8B4208
:1001200028D3030C8B420DD3FF22090212BA030C11
:100130008B4202D31212090265D0030B8B4219D3F2
:1001400000E0090AC30B8B4201D3CB03C01A524112
:10015000830B8B4201D38B03C01A5241430B8B425A
:1001600001D34B03C01A5241030B8B4201D30B0343
:10017000C01A5241C30A8B4201D3CB02C01A52416A
:10018000830A8B4201D38B02C01A5241430A8B422D
:1001900001D34B02C01A5241030A8B4201D30B0216
:1001A000C01A5241CDD2C3098B4201D3CB01C01A30
:1001B000524183098B4201D38B01C01A524143093A
:1001C0008B4201D34B01C01A524103098B4201D328
:1001D0000B01C01A5241C3088B4201D3CB00C01A95
:1001E000524183088B4201D38B00C01A524143080D
:1001F0008B4201D34B00C01A5241411A00D2014632
:10020000524110467047FFE701B5002000F0F0F8BA
:1002100002BDC0460029F7D076E7704703460B437E
:100220007FD4002243088B4274D303098B425FD3EF
:10023000030A8B4244D3030B8B4228D3030C8B421B
:100240000DD3FF22090212BA030C8B4202D3121201
:10025000090265D0030B8B4219D300E0090AC30BD6
:100260008B4201D3CB03C01A5241830B8B4201D383
:100270008B03C01A5241430B8B4201D34B03C01A6C
:100280005241030B8B4201D30B03C01A5241C30AE4
:100290008B4201D3CB02C01A5241830A8B4201D355
:1002A0008B02C01A5241430A8B4201D34B02C01A3F
:1002B0005241030A8B4201D30B02C01A5241CDD2E4
:1002C000C3098B4201D3CB01C01A524183098B422F
:1002D00001D38B01C01A524143098B4201D34B0118
:1002E000C01A524103098B4201D30B01C01A52417B
:1002F000C3088B4201D3CB00C01A524183088B4202
:1003000001D38B00C01A524143088B4201D34B00EA
:10031000C01A5241411A00D201465241104670475C
:100320005DE0CA0F00D04942031000D34042534061
:1003300000229C4603098B422DD3030A8B4212D321
:10034000FC22890112BA030A8B420CD38901921153
:100350008B4208D3890192118B4204D389013AD090
:10036000921100E08909C3098B4201D3CB01C01A65
:10037000524183098B4201D38B01C01A5241430978
:100380008B4201D34B01C01A524103098B4201D366
:100390000B01C01A5241C3088B4201D3CB00C01AD3
:1003A000524183088B4201D38B00C01A5241D9D2EB
:1003B00043088B4201D34B00C01A5241411A00D26C
:1003C0000146634652415B10104601D34042002B68
:1003D00000D54942704763465B1000D3404201B5E7
:1003E000002000F005F802BD0029F8D016E770479C
:1003F0007047C04610B5040001F084FFFA2189005F
:10040000FFF782FE00F05CF801200022210040424C
:1004100000F020F8002010BD1021064A10B5136826
:1004200000200B431360FFF7E5FF03F0BFF8002047
:1004300010BDC04600200240024A13680133136019
:100440007047C04678010020014B18687047C046CD
:1004500078010020FF22032330B51400C5B22B40E1
:10046000DB009C4089010A40E4439A4000280BDBF2
:100470000C4B80089C46C023800060449B00C15800
:100480000C402243C25030BD0F2307492B408C46FD
:10049000083B9B089B006344D9690C402243DA6106
:1004A000F1E7C04600E100E000ED00E01F23184046
:1004B0001E3B8340014A13607047C04600E100E0E4
:1004C0000A4A431E012093420ED8C021084A094817
:1004D0005360036A09061B021B0A0B4303620023D5
:1004E00000209360073313607047C046FFFFFF0092
:1004F00010E000E000ED00E070B5041E00D1FBE06C
:10050000EA23FF33C35CDBB2002B00D1EEE0EA2329
:100510000322FF33E2546268002A00D1D1E0802137
:1005200000232B204900218523546363A363E363E5
:10053000012A00D8F8E002251930FF352552033092
:10054000235423656365A365022A00D1D6E01930E0
:100550000135255203302354E36623676367032A7A
:1005600040D004251930FF3525520330235409307B
:1005700023500430235004302350042A32D0083052
:1005800001352552033023540930235004302350C1
:1005900004302350052A25D006250830FF35255282
:1005A00003302354093023500430235004302350A7
:1005B000062A17D00830013525520330235409305C
:1005C00023500430235004302350072A0AD0082532
:1005D0000830FF35255203302354093023500430AE
:1005E0002350635084200023400023520C2000211C
:1005F0000125FF30215409302350043023500430AA
:100600002350083025522820FF3021540930235030
:100610000430235004302350013508302552442043
:10062000FF3021540930235004302350043023502C
:10063000032A46D0AE200325400025526020FF301B
:100640002154093023500430235004302350042A0D
:1006500037D00830013525527C20FF302154093035
:1006600023500430235004302350052A29D0083069
:10067000013525529820FF30215409302350043091
:10068000235004302350062A1BD008300135255250
:10069000B420FF302154093023500430235004305B
:1006A0002350072A0DD0E622BE385200FF38A05250
:1006B000D022FF32A1540932A3500432A350043295
:1006C000A3504022012123684420995200219952CD
:1006D00019520C3019521749002099520022242334
:1006E000E254EA230122FF33E25470BDF4225200A7
:1006F000835402F0DBFF0AE70120F6E7842149007A
:1007000063520C2100220120FF31625409316350F1
:100710000431635004316350083160522821FF31A5
:10072000625498225200C7E784225200A35200214B
:100730000C22BEE700BFFFFF5822016880208B5AC1
:10074000000203438B5200207047C046F4235B0035
:10075000C25C012A11D00122C254002907D02423EF
:10076000C154F42300225B00C254002070479D3B1B
:100770000168FF3B7F32CA52F3E70220F6E7C0462A
:10078000F0B5C6467F264DB200B50E40002D00DA0A
:10079000B2E0CC00611A89000931FF314118CB70F9
:1007A000F423ED0F0E704D70CA605B00C45C012C29
:1007B00000D135E10124C454CC780368012C00D168
:1007C00038E1002C00D10CE1022C00D12AE1032CED
:1007D00000D1FBE00C789D4DA446A6009E193488FC
:1007E000A8462C4065469A4F2F433C4334808C7A70
:1007F000002C28D101270C788E88E400A4464C7880
:10080000BE43002C00D1B0E050229C5A80221C191B
:10081000D20064449446644426800A7892009A1870
:100820001488650600D5E7E08A4D2C4020256C40F1
:10083000874D2C431480F42300225B00C254002017
:1008400004BC9046F0BD50270A78834E92009A1857
:1008500014882640814C344314800A78DC5BD20033
:1008600012198024E400A4460126CC88D2186244E0
:10087000B44314800A78DC5BD2001219784CD21889
:10088000A4460C896244B44314804A78002A39D1C2
:100890000A7894001C192688750405D5454635400C
:1008A000704E354325800A7894001C1925886E0601
:1008B00005D5664A15406C4A154325800A78920092
:1008C0009A181488614D2540674C2C4314800A788F
:1008D000664D92009A1814882540C024A4016C40EB
:1008E0005B4D2C4314800A785A4992009B181A8851
:1008F0000A4015431D809EE7F100891B89002831BD
:1009000041184CE70A78454692009A181488260048
:100910002E40650409D54546524C264316800A7878
:1009200092009A18148825402E00640608D54E4C73
:10093000264316800A78454C92009A18168826405D
:10094000484C444D264316800A7892009A18148821
:100950002C403F4D2C4314800A78444992009B1848
:100960001A880A4015431D8065E750255C5B1C19F9
:100970006444A0463A4CA4464446644426800C781D
:100980005D5BE40064193A4D5D1964193E2A3DD857
:100990005508174200D00135AD0225800A78920033
:1009A0009A181488650408D5284D2C402D4D2C43E9
:1009B00014800A7892009A1814882C4B1C40C0238B
:1009C0009B016340224C1C43148034E70C78294E71
:1009D000A4001C1925882E40C025ED003543258034
:1009E000F8E60C78234EA4001C1925882E4080259B
:1009F000AD0035432580EDE6454625401A4C25439C
:100A000015800A7892009A1814880DE75509D206C5
:100A100001D1013DADB2184AAD0215432580BDE7B5
:100A200002200DE70C78134EA4001C1925883540D0
:100A30002580CFE60C780F4EA4001C1925882E4087
:100A40008025ED0035432580C4E6C0460F0F000029
:100A50008080FFFFBF8FFFFF0F0E00008081FFFF30
:100A60000404000080C0FFFFC080FFFF8FBFFFFFB6
:100A7000060400008F89FFFF0080FFFF7F22F0B592
:100A80004CB20A40002C5FDBCB00591AF4238900DA
:100A90000931FF314118E40F0A704C705B00C25CF1
:100AA000012A5ED00122C2548B7A0468002B14D133
:100AB0000B784E789A00A2181588002E53D06B063A
:100AC00000D58FE04C4B1D404C4B1D431580F4234B
:100AD00000225B00C2540020F0BD80250B784F78C7
:100AE0009E00A6193288ED011540002F4CD1002D33
:100AF00005D0434B1A40434B1A4332800B789A007F
:100B0000A21815886E0605D53D4B1D403E4B1D4372
:100B100015800B789A00A2181388394D1D403A4B66
:100B20002B4313800B78394D9B00E3181A882A4019
:100B3000324D2A431A800B782F499B00E3181A88FC
:100B40000A4015431D80C2E7F423D100891A8900A9
:100B500028314118E40F0A704C705B00C25C012A16
:100B6000A0D10220B8E76E0405D5254B1D40254BCA
:100B70001D4315800B789B00E3181A882349114008
:100B80001E4A0A431A80A2E713001D4F3B40002D66
:100B900008D01C4A134333803B000E78B600A619D8
:100BA00032881340520608D5174A134333800E7813
:100BB000134AB600A61933881340124A0E4D134348
:100BC00033800B789B00E3181A882A400B4D2A4388
:100BD0001A800B780D499B00E3181A880A401543C8
:100BE0001D8074E7064B1D40074B1D4315800A7896
:100BF0009200A218158865E7BF8FFFFF8080FFFF76
:100C00000F0F000080C0FFFFC080FFFF8FBFFFFFFE
:100C1000F0B57F244646D6464F462140C0B5CE00AB
:100C2000741AA400041925001935FF352A60220022
:100C30001D32FF3213600022AA600F3D2A7022008D
:100C40000932FF321534FF3411701D00236800246F
:100C50009D4201D9EC1A1D00721A920082181300ED
:100C60001D33FF331C600A3B1B780768002B2DD116
:100C700009325033FF32FC5A1378704ADB001B19DB
:100C8000BA189B183E2D00D886E06A0992B2EC068D
:100C900001D1013A92B2711A694C8900920240184E
:100CA000224309301A80FF300478A300FB1819880A
:100CB000644A00201140C02292015140624A0A4316
:100CC0001A801CBC90469946A246F0BD0A23842493
:100CD000FF339C466400A0469444634690444246D9
:100CE0001B781478002B36D15033FB5AE400E418FB
:100CF000A146564BFB1899443E2D5CD91F222A4031
:100D0000944664466B099BB21A00002C01D15A1E0E
:100D100092B24B4C920222434C462280741AA40099
:100D2000041922000A32FF321278002A6CD15022B4
:100D30000934FF34BD5A2278404CD20052193C1974
:100D400012196446002C01D1013B9BB23C4C9B0222
:100D50002343138028E0012BA7D15022E4009146C1
:100D6000BA5AE419A418394A924662465444258076
:100D70001278002A48D14A46BC5A42461278D2001C
:100D800012192E4C3C1912193E2D51D91E332B40ED
:100D90006D099C46ABB2D4E76A0892B2EC0701D564
:100DA000013292B292021A80711A890040180930F9
:100DB000FF30047879E76B089BB29C4601236246BA
:100DC0002B4001D0013292B24C4692022280741A1A
:100DD000A400041922000A32FF321278002A13D12B
:100DE00050220934FF34BD5A2278144CD2005219D3
:100DF0003C191219002B03D065460135ABB29C4655
:100E000063469D021580CFE7711A890040180930AA
:100E1000FF300478012A00D047E75023FA5AE30054
:100E2000FB189B18054A944663441D8004783CE7F0
:100E30002B406D08ACB2A446DCE7C04606040000B7
:100E40000080FFFF8FBFFFFF8080FFFF02040000D4
:100E5000F0B57F24DE4657464E4645462140CC003D
:100E6000A346641AA4000419E0B5A2630022226418
:100E7000220001262932E363013A567011701F00E7
:100E8000636B00249F4201D9FC1A1F005B465A1A6B
:100E90003B041B0C01335D08AC4680259200821890
:100EA0001600ED00AA46D463323604683678A244B0
:100EB000002E5AD1956BA846BDB2978D6246A946C1
:100EC0005744002A2FD042463500043297427541DC
:100ED000AA4645463A1D954276415246324303267C
:100EE0003D432E4075427541154200D1FAE06246FD
:100EF0000C2A00D8F6E04546ED1B3E000022AA462B
:100F00009B0855467559013220C69A42F9D3454689
:100F10005A009B00EE18FB18624504D072783778AF
:100F200012023A431A805023E25A5B46591A89004A
:100F3000401828300378DB009B187B4AE31894465E
:100F40004A4663441A8003789B00E3181A8877495D
:100F500000200A4030214A4075490A431A803CBCAF
:100F600090469946A246AB46F0BD16002836367824
:100F70002932B5002D5B12786D061CD5002A00D0F1
:100F800083E05032A25AF600B6186A4AA218B61880
:100F90003E2F00D8BEE07A0992B2FD0601D1013A97
:100FA00092B2654F92023A4332805A46521A9200E8
:100FB0008218128E1AE0002A74D15032A25AF6001A
:100FC000B618594AA218B6183E2F00D899E07A09E7
:100FD00092B2FD0601D1013A92B2574F92023A43C2
:100FE00032805A46521A92008218D28D5D4692443F
:100FF00062466E1AB6008619B66B002A2FD052468A
:10100000171D00221500BE425541A946351DA846B0
:1010100055464746BD4252410C274D466745BF41A4
:101020002A437F4217424FD05246324392074BD158
:101030005246B51A0027A8469B0845465559013720
:1010400020C29F42F9D35F009B00F61853441A0058
:10105000674504D0737837781B023B4313805B46A7
:10106000591A890040180300283029331978037869
:101070009B00E3181A88002921D0012900D066E7D7
:101080002E490A402E490A435CE7012A8DD14F328E
:10109000A25A284D9046F2004244A84612194244F2
:1010A000178082E7012A9CD14F32A25A1E4D9046EA
:1010B000F2004244A84612194244178091E71F49A2
:1010C0000A4020490A433DE7634652465B00F31855
:1010D000921B777835783F022F43B7520236B342DE
:1010E000F7D1BCE763465B009C464646C444BB1B45
:1010F0007278377812023A43F25202366645F7D1D7
:1011000011E77A0892B2FD0701D5013292B292023C
:10111000328066E77A0892B2FD0701D5013292B2B9
:101120009202328041E7C04602040000BF8FFFFFF9
:101130008080FFFF060400000080FFFF0F0F00000B
:1011400080C0FFFFC080FFFFF0B54546DE46574632
:101150004E464422E0B5036887B09A5A050012B2A1
:10116000002A00DA6CE04422995A49054BD4442203
:10117000995A490403D5995AC848014099524422C2
:10118000995A890403D5995AC54801409952442473
:101190001A5BD20427D44422995A090510D5995ACA
:1011A000C0480824014099524021585A2043042441
:1011B0005852585A204358529A5AD20400D491E1B6
:1011C0004422995A890532D44422995AC90503D533
:1011D000995AB5480140995207B03CBC904699468F
:1011E000A246AB46F0BD40220420995A8143995251
:1011F000AE492800995202F0C9FA2B68AC491A5B33
:101200000A401A53C7E7995AAA4801409952280040
:1012100002F098FAF4225200AB5C012B00D121E2DB
:101220004C2180202B6858520021A9549FE7995ADD
:10123000A14801409952280002F07CFA2B68C3E7CC
:10124000002204A9CA80443293465A469A5A04A9F5
:1012500092B28A8012B2002A00DB84E704AA948842
:101260000F22144047D104AA9288D20600D4EAE0A3
:101270001A8804A9CA80C988090500D5B7E104A95C
:10128000C98809B20029E0DA8C492C000A401A808A
:101290005022995AB832AA5C0934D20052188849AF
:1012A000D2188C4662441288FF3494469205920DFF
:1012B000A26100D0FBE20021280002F021FA5022B6
:1012C0002B687F499A5A59188A18E1683E2900D933
:1012D00072E2480880B2C90701D5013080B28002AD
:1012E00010801988774A1140C02292015140764AF5
:1012F0000A431A80A9E7A6009819018804AAD18098
:10130000D28812B2002A57DB802104AAD288114267
:101310009BD09E1932886D490A4032806C4A9818D9
:10132000E200111B890069180E00323637780190EF
:10133000002F00D1DBE00E0028363678F700BC46DF
:101340004027B600F65A374050269E5B002F00D14A
:101350008AE1804660464644365AB605B60D0E64AC
:1013600000D0D7E2111B8900691828310978594F3C
:10137000890059180E883740574E3E430E80502141
:10138000141BA4002C195E5A210028310B78019AF5
:10139000DB009B199A5AA36B92059C46920D22641E
:1013A000E36B6244A26309782800002B00D095E02B
:1013B00002F0B4F92B6848E7404A1140E20001808E
:1013C000111B8900691808001330FF3000780028CD
:1013D00000D0E6E050301F5A08000930FF30007896
:1013E000C000C019364FC018BC4660440088804613
:1013F0008005800D844667460020002F00D029E23A
:10140000171BBF00EF193A002132FF3213681B1877
:1014100013603B001933FF331A6812181A60043343
:101420001B68002B00D176E139001537FF370931F1
:101430003F68FF310978874200D806E2280002F0B1
:101440005FF92B6860E71A88204928000A401A8053
:101450005022995A283AAA5CD2009B181C4A5B1861
:101460009446AA6B634494461B8800219B059B0D00
:101470002B646344AB6302F051F92422AB5C002B74
:101480002ED0E96B2B68002900D0DEE68024A85C12
:101490002043343C1853A954D7E6C046FFBFFFFF92
:1014A000FFDFFFFFFFF7FFFFFFFEFFFF00BDFFFFB6
:1014B000FFEFFFFFFFFBFFFFFFFDFFFF8F0F0000B0
:1014C000060400008FBFFFFF8080FFFF0F8FFFFF2C
:1014D000020400000F0F000080C0FFFFFFF7B8FC00
:1014E0002B68B2E6280002F03FF92B6868E6502628
:1014F0009E5BB4460E0028363678F6006644365AAF
:10150000B605B60D0E6400D139E7886B898D844627
:10151000701C8146400802908020C00080464144F3
:101520008846984441463800664604318E427841E8
:10153000010004204646604486427F410F436146D5
:1015400031438A460321564631404E424E413E4287
:1015500000D160E102980C2800D85CE14746604663
:10156000C01B494682468E08994600215346924642
:101570000198FA58013104C7B142FAD371004B46C1
:101580008946614601900298B700C91952464744FE
:10159000484500D1F3E60E78497809023143398095
:1015A000EDE608000930FF3000788700B84698441F
:1015B00047463F88C000B9467F0400D4AFE05027BB
:1015C000DF5BDF193818CD4FBC46604400888705C3
:1015D0008446BF0D0020002F00D0F8E04946C84BDC
:1015E00019400B00C7490B4341460B8008E75022C6
:1015F000995AB832AA5C2F00D2005218C249D218A8
:101600008C46624412880639960594462A0088461C
:101610000932B60DFF3296619288ED374244FF37AA
:101620007608D318002E0ED0390034001800028836
:10163000013C0A70120A4A7002300231002CF6D1C5
:1016400076009B19BF196246D20701D51B883B70F3
:101650002A68AE49138828000B40138002F046F830
:101660002B68F2E52B6882E5A7489E1966448446FC
:1016700066443688B605B60D0E6400D172E6886BF6
:10168000098E8446701C8146400802908020C0006C
:1016900080464144884698444146380066460431B5
:1016A0008E427841010004204646604486427F41D4
:1016B0000F43614631438A460321564631404E422C
:1016C0004E413E4200D18AE102980C2800D886E1C2
:1016D00047466046C01B494682468E08994600210F
:1016E000534601980392FA58013104C7B142FAD324
:1016F00071004B468946614601900298B700C919AE
:10170000039A4744814500D12CE60E7849780902B6
:101710003143398026E60937FF3739788EE650277E
:10172000DF5BDF193818784FBC46604400888705B6
:101730008446BF0D0020002F00D14FE70800113173
:10174000FF31098819308A468021C90089465146EF
:1017500049448946FF3000689944804678080190E2
:10176000494614D0029041464846401A924602002B
:10177000029B505A013B0870000A48700231002B4E
:10178000F7D149465246019B5B00C918984463460D
:101790003800DB0702D50B8841460B702968131B04
:1017A00088469B00EB180933FF331B789B00984455
:1017B00043461B88994611E7480980B2C90601D102
:1017C000013880B2524980020843108089E5080040
:1017D0000F31FF31098819308A468021C9008946B6
:1017E000514649448946FF3000689944804678084C
:1017F00001904946CBD0029041464846401A924655
:101800000200029B505A013B0870000A48700231E6
:10181000002BF7D1B5E7029901984E006644B14616
:1018200041466646891B884611009C4642464B4607
:1018300088467178377809023943B15202369E42A0
:10184000F7D163460190424699E52800FFF7E0F999
:101850002B6859E508001930FF3000680D318246C9
:1018600078088027FF00B946FF3109880190494474
:10187000CB181F00002811D051460700581A99466E
:101880000300585A013F0870000A48700231002FC7
:10189000F7D14B46019949005F188A444346604698
:1018A000DB0700D4ACE551463B880B70A8E5216905
:1018B000570888468021C9008946A2884A44D3181F
:1018C000002F0ED041463E0018000288013E0A70EB
:1018D000120A4A7002300231002EF6D17F00DB1965
:1018E000B8446246D20702D542461B881370A269EB
:1018F0002369944663442361DDE4C046020400008A
:101900000F0F0000C080FFFF060400008F0F0000D3
:101910000080FFFF886BC98D8446701C02904008D0
:1019200080468020C0008146494489469944494602
:101930000F1D002166460800BE42484107000420F2
:101940006044824648465646B042494160464E464B
:10195000394303273043074078427841084226D074
:1019600041460C2923D94F466046C01B8246029946
:10197000029252468E089A46002113000198FA58A6
:10198000013104C7B142FAD3019060467100B6003C
:1019900087195346029A4E44884500D1E2E43978CB
:1019A0008C4679786746090239433180DAE441464A
:1019B0004F006744B84649466746C91B9C464346A4
:1019C00090460A00019879783E7809023143B9526D
:1019D00002379F42F7D1634601904246C2E4029922
:1019E00001984E006644B14641466646891B9C46B6
:1019F00090464B460A007178377809023943B15254
:101A000002369E42F7D1E6E7F42330B55B00C25CB4
:101A1000012A4AD00125C5546A3BFF3B4AB20B401C
:101A20000468002A29DBCA00511A890041180A00FB
:101A30000B32FF321570023A137000220A31FF3167
:101A40000A70002B0DD12288194B1A40194B5A40AD
:101A5000194B13432380F42300225B00C25400205F
:101A600030BD9B00E3181988144A114080225201AE
:101A70005140114A0A431A80EDE7DA00D21A920067
:101A8000821811002A310D70293202390B7015703D
:101A9000002BD8D09B00E4182288094B1A40102351
:101AA0005A40054B1A432280D5E70220D8E7C046AA
:101AB000BFBFFFFF101000008080FFFF8FBFFFFF40
:101AC000BF8FFFFF30B57F244AB20C40002A49DBAC
:101AD000CB00591A89000931FF3141180023D20F78
:101AE0008B70E9330C704A70FF33C25C012A3FD01F
:101AF0000122C2544B780468002B1CD10B789B0048
:101B0000E3181A88550408D51A4D2A401A4D2A435D
:101B10001A800B789B00E3181A8818490A40C021E4
:101B200089015140164A0A431A80F42300225B00BF
:101B3000C254002030BD0B789B00E3181A8855066C
:101B400008D50C4D2A400F4D2A431A800B789B0074
:101B5000E3181A880C490A4030214A4008490A43D0
:101B60001A80E2E7E100091B890028314118B5E736
:101B70000220DFE70F0F000080C0FFFF8FBFFFFFD5
:101B80008080FFFFC080FFFFBF8FFFFF10B50C06F6
:101B900010D57F242140CC00611A890028314018DB
:101BA00099B2002A0FD01B0C03810123C1808372DC
:101BB000002010BDCC00611A89000931FF314018A6
:101BC00099B2002AEFD181800023F0E7F0B5CE462C
:101BD000474680B5036883B00400DA072FD50C218F
:101BE000C54842680A40042A00D104E14268114015
:101BF000082900D1F6E06368012B00D135E1002B04
:101C000000D169E1052B00D128E2BB4BBB491A6822
:101C10000A401A601A68BA490A401A60FEF714FCB2
:101C200080250700B44EAD0205E0FEF70DFCC01B99
:101C3000642800D94EE133682B42F6D023689A0716
:101C400029D50C22AC494868024200D1E7E0486837
:101C50000240082A00D1D9E0E368002B00D17BE1E3
:101C60000122A54F02253B6813433B60FEF7ECFBC6
:101C7000060005E0FEF7E8FB801B022800D929E1F9
:101C80003B681D42F6D0F8213A6823698A43DB009D
:101C900013433B6023681A072BD45A0743D580228D
:101CA000954B5205D9690025114207D1D9690135F3
:101CB0001143D961DB691A400192019B8026914F43
:101CC00076003B68334200D1D6E0A368012B00D1F7
:101CD000E3E0002B00D125E1052B00D195E10121A6
:101CE000854B1A6A8A431A621A6A03318A431A6256
:101CF000D7E0E369804D002B00D1A3E001226B6A9D
:101D0000022613436B62FEF79FFB070005E0FEF718
:101D10009BFBC01B022800D9DCE06B6A1E42F6D098
:101D200023685A07BBD4DA0612D56269012A00D1AA
:101D300075E1053200D023E10420F8256E494A6B95
:101D400082434A63486BA269A843D20002434A63B4
:101D50009B0622D50C2268494B6813400C2B00D1FE
:101D60002DE14B681A40082A00D121E1236A624D17
:101D7000002B00D12EE180266B6B760233436B6320
:101D8000FEF762FB070005E0FEF75EFBC01B0228C2
:101D900000D99FE06B6B3342F6D0636A002B1BD0F7
:101DA0000C22554D69680A40082A2DD0022B00D11B
:101DB00060E12B68544A802413402B60FEF744FBFB
:101DC000A404060005E0FEF73FFB801B022800D9B3
:101DD00080E02B682342F6D1002003B00CBC904673
:101DE0009946F0BDC021426849020A40802149025B
:101DF0008A4200D0FFE6404A1268920300D41EE7F0
:101E00006268002A00D01AE70120E6E74A68C0218C
:101E100049020A40802109028A4200D01CE7364A62
:101E20001268920702D5E268012AEDD1F8253248FE
:101E300022690168D200A9430A4302601A0700D44C
:101E40002BE756E701226B6A022693436B62FEF78B
:101E5000FBFA070004E0FEF7F7FAC01B022839D8A6
:101E60006B6A1E42F7D123685BE78023224A5B023C
:101E700011680B431360D1E63B6833433B60FEF7C8
:101E8000E3FA804605E0FEF7DFFA4346C01A64280D
:101E900020D83B683342F6D017E717490A6A134344
:101EA0000B62FEF7D1FA194B8146134F0226984672
:101EB00005E0FEF7C9FA4B46C01A40450AD83B6A0E
:101EC0001E42F6D0012D00D198E02368DA0600D436
:101ED0003EE72AE7032080E7074D084A2B68802663
:101EE00013402B602B68064AB60213402B60FEF7A6
:101EF000ABFA070011E0C04600100240FFFFFEFFF2
:101F0000FFFFFBFF00700040FFFFFFFE8813000093
:101F1000FEF79AFAC01B6428DCD82B683342F7D14D
:101F200023688CE601226F4E0227336A93433362A3
:101F3000336A033293433362FEF786FA6A4B814673
:101F4000984605E0FEF780FA4B46C01A4045C1D8D6
:101F5000336A1F42F6D1B5E70122624D02262B6893
:101F600093432B60FEF770FA070004E0FEF76CFA6B
:101F7000C01B0228AED82B681E42F7D123688AE620
:101F80000422584D02266B6B13436B636B6B033A51
:101F900093436B63FEF758FA070004E0FEF754FA28
:101FA000C01B022896D86B6B1E42F7D12368CFE680
:101FB000C0224B6852021340934200D0D6E6494BF0
:101FC0005B6BDB0300D4E8E6236A012B00D1E4E677
:101FD000012002E76B6B454A802613406B63FEF7D6
:101FE00033FA7602070005E0FEF72EFAC01B02283E
:101FF00000D96FE76B6B3342F6D1CEE6394A3C49E4
:10200000D3690B40D361236860E70421354B1A6A1A
:102010000A431A621A6A03390A431A6241E7042121
:10202000304D02266B6B0B436B636B6B1A436A6319
:10203000FEF70AFA070005E0FEF706FAC01B0228C1
:1020400000D947E76B6B1E42F6D0F8216A6BA36993
:102050008A43DB0013436B63236879E68022214BBC
:10206000D20219680A431A608022196852020A4390
:102070001A60D3E52B681F4A802613402B60FEF7B9
:10208000E3F9B604070005E0FEF7DEF9C01B0228FD
:1020900000D91FE72B683342F6D10F22EB6A934336
:1020A000226B1343EB62A16AE36A6A680B4312492D
:1020B00080240A4013436B6080232A685B04134327
:1020C0002B60FEF7C1F9074D0600A40405E0FEF7FA
:1020D000BBF9801B022800D9FCE62B682342F6D00E
:1020E0007AE6C0460010024088130000FFFFFEFFA2
:1020F000FFFFFFEFFFFFFFFEFF7FC2FFF0B5CE4601
:102100004746012380B50C00744989B00A68050070
:102110001A40A2420DD20A689A4322430A600A6812
:102120001340A34205D0012009B00CBC904699464B
:10213000F0BD2B689A0706D5F02069494A688243AA
:10214000A86802434A60DB072BD56B68644A012B01
:102150006ED0022B68D0032B00D194E01268920756
:10216000E1D503215E4E72688A4313437360FEF724
:102170006BF96B680700012B75D0022B00D187E04B
:10218000032B00D194E00C239846564B994604E06B
:10219000FEF75AF9C01B484563D8424673681A4295
:1021A000F6D101214D4A13680B40A34205D91368AB
:1021B0008B43136013681942B5D12B685B072BD48E
:1021C0006946494B0A00180070C870C20068103395
:1021D000106004AA100070CB70C01B68404D0360F3
:1021E0000C206B681840082826D00C384342584110
:1021F0003E4B404218403E4B9C466044384B3D4A63
:102200005B681B061B0FD35CD8403B4B186000205B
:10221000FEF7F0F8002087E7314A384953680B4051
:10222000E9680B435360CBE71268920199D47AE7CF
:102230001268920395D476E70F209C0C04400C5D45
:10224000E96A0840115CC02280205202134040021B
:10225000834201D093423BD02548FDF755FF6043B0
:10226000CCE7032060E70B3398461E4B994604E009
:10227000FEF7EAF8C01B4845F3D84246736813409E
:10228000042BF5D18DE7526BD20300D569E74AE7FD
:102290000A339846134B994604E0FEF7D5F8C01B65
:1022A0004845DED8424673681340082BF5D178E7DD
:1022B000093398460B4B994604E0FEF7C5F8C01B5E
:1022C0004845CED84246736813400C2BF5D168E7D9
:1022D0000B48FDF719FF604390E7C046002002401D
:1022E0000010024088130000F43C0008005A62020B
:1022F00000127A00F43D0008EC000020FFF8FFFF18
:10230000006CDC02014B18687047C046EC000020EE
:10231000F0B5CE46474680B5036883B00400DA03C3
:1023200036D58022454B5205D9690027114207D185
:10233000D96901371143D961DB691A400192019BC8
:1023400080263F4D76002B6833424BD0C0213B4D59
:1023500089002A6A60680A4011D0014091420ED07B
:102360008022296A2E6A520232432A622A6A354B37
:10237000354E0B4032402A622B62CB074BD42F4A9A
:102380003049136A0B4003431362012F3BD023688B
:10239000DA0706D5032029490A6B8243A068024365
:1023A0000A639A0606D5102024490A6B8243E06826
:1023B00002430A639A0306D5802020490A6B8243B0
:1023C000606902430A6300205B0506D540211B4A71
:1023D000136B8B4321690B43136303B00CBC904612
:1023E0009946F0BD2B6833432B60FEF72DF88046ED
:1023F00005E0FEF729F84346C01A642809D82B687F
:102400003342F6D0A2E7D36910490B40D361236869
:10241000BEE70320E1E7FEF717F80D4B80460226E2
:10242000994605E0FEF710F84346C01A4845F0D833
:102430002B6A1E42F6D06068A1E7C0460010024039
:1024400000700040FFFCFFFFFFFFFEFFFFFFFFEFFC
:1024500088130000222303800048704700000020FA
:10246000862300229B00C35800201A737047C04681
:102470000A230380014824307047C0460000002032
:1024800086239B0010B50A78C458B93BFF3B134024
:102490000FD0202B0BD14B78032B2DD019D90A2B21
:1024A00034D00B2B2ED18B780020236000E000204D
:1024B00010BD4B780A2B18D00B2B12D0062BF6D15F
:1024C0004B881B0A222B2FD0212B24D00021002245
:1024D0000EE0022B16D1211D012200F0FBFB002093
:1024E000E6E78B780020A360E2E7210001220831B3
:1024F00000F0F0FB0020DBE70122210000F0EAFB06
:102500000020D5E700F0B4FB0220D1E74B88002083
:102510001B0A6360CCE7CB881A1C092B00D909225F
:10252000064992B22831E3E7CB881A1C752B00D9F3
:102530007522034992B23031DAE7C04680000020AC
:102540000000002070B5862504008121AD0001F057
:1025500087F96059002803D001F0FEF90023635188
:10256000002070BD10B5092303228121040001F071
:1025700065F9102001F0ECF986239B00E05000285B
:1025800003D000230373002010BD0120FCE7C046E8
:1025900010B5FE246400045D032C01D0002010BDA2
:1025A00086239B00C3581C7B002CF7D101341C737D
:1025B00013000A00812101F0ABF9EFE710B5002804
:1025C00014D085239B00C458002C01D00024C45093
:1025D000002902D084239B00C150FE2301215B000F
:1025E000C154027001F0E6F8002010BD0220FCE7A3
:1025F000002904D085239B00C15000207047022091
:10260000FCE7C04610B501F009F9002010BDC04636
:1026100085239B00C35810B5002B04D01B68984736
:10262000002800D110BD0220FCE7C046852310B56C
:102630009B00C3585B689847002010BD82239B0015
:1026400070B5C5180400280000F0FEFAFA23012234
:102650005B00E250124BE25A163BE2501033E15C51
:10266000EA3BFF3B0B40012B14D0002B0DD0022B7B
:1026700006D07F232000994301F002F9002070BDAD
:102680002900200000F072FAF8E72900200000F08D
:10269000EFF8F3E72900200000F046FAEEE7C04625
:1026A0000E02000010B513000400002906D1FA2222
:1026B00052008258032A0ED0002010BD85239B00B3
:1026C000C3589B69002BF7D0FE225200825C032A7C
:1026D000F2D19847F0E70530FF308168C268914237
:1026E00010D885239B00E3581B69002B06D0FE22DF
:1026F0005200A25C032A01D120009847200000F07C
:1027000007FBD9E7891A81608A4205D892B219007D
:10271000200000F0F5FACFE70A00F7E7F8B504006B
:10272000130000290BD1FA2252008258022A16D037
:1027300080239B00E25C012A0ED00020F8BD852397
:102740009B00C3585B69002BF7D0FE225200825CCD
:10275000032AF2D19847F0E70022E254EDE7C2697C
:10276000056AAA421ED8866929003000FDF752FD8D
:102770000F1E01D1B54222D985239B00E358DB68A7
:10278000002B06D0FE225200A25C032A01D12000B9
:102790009847200000F0C8FA80239B00E25C012AE1
:1027A000CBD1D9E7521BC261190092B200F0A0FA56
:1027B000002300220021200001F0BAF8B8E7FC2530
:1027C0006D0063599E42D7D200220021200000F004
:1027D0008FFA6751ECE7C04670B540230022002114
:1027E000040001F02BF8882340255B00E55000220F
:1027F000D03B8021200001F021F8FE2301225B0064
:102800002562E2541C33E358002B06D085239B003D
:10281000E35821795B6820009847002070BDC046CE
:10282000017400207047C046FE23FE225B00C15C9D
:10283000FF328154FA3AFF3AC25400207047C04632
:10284000FE23FF33C25C013BC25400207047C046E8
:10285000FE2310B55B00C35C032B01D0002010BD2C
:1028600085239B00C358DB69002BF7D09847F5E719
:1028700070B54B7882B004000D00092B0AD8A64A27
:102880009B00D3589F468B88002B03D1CB88002B0D
:1028900000D176E08021200000F0F2FF002120002E
:1028A00000F0EEFF002002B070BD8B789B4D2B70C6
:1028B000012BEFD8FE214900425C022A79D0032A7D
:1028C000E8D1002B00D11DE14168012933D0C9B204
:1028D000FFF7ACFE297820006160FFF799FE02281F
:1028E00029D1D7E7FE235B00C35C023B012BD1D883
:1028F0000123C36081239B00C358002B01D0032315
:10290000C360210002220C31200000F0E3F9C9E786
:10291000FE235B00C35C023B012BBBD84B88012B21
:10292000C0D1812300229B00C2501033E3582900FC
:102930009B6820009847200000F0EAF9B2E74B8836
:10294000012BAFD181229200835085239B00EDE7BC
:102950004A88130A072B9DD871499B00CB589F4684
:10296000CB88012B00D095E7FC33FF33C35C022BEF
:102970002BD0032B00D08DE7011D012200F0AAF916
:1029800090E7FE267600835D032B00D182E77F254A
:102990004B881D40FF235B00C554290000F0A8FFB1
:1029A000200000F0B5F9002D00D1A0E00223A355CE
:1029B00078E7002BBFD00123436002334354012149
:1029C000FFF726FE0228B6D164E7002301008360EA
:1029D0000831012200F07EF964E7037C002B00D06F
:1029E00058E76B469E1D85239B00C35830001B6B28
:1029F0009847072343703388002B00D152E7EA88B9
:102A0000002A00D14EE7191C934200D9111C8AB24A
:102A100031800100200000F05DF943E7037C002BCA
:102A200000D037E76B469E1D85239B00C3583000BE
:102A30005B6B9847DFE7D2B2052A00D92AE7394B0A
:102A400092009B589F468523027C9B00C358002A16
:102A500050D16A46961D9B6A300098470223437006
:102A6000C9E76B469E1D84239B00E35831001B6819
:102A7000007C9847BFE76B469E1D84239B00E3586C
:102A800031005B69007C9847B5E76B469E1D842347
:102A90009B00E35831001B69007C9847ABE76B460D
:102AA0009E1D84239B00E3583100DB68007C98471F
:102AB000A1E76B469E1D84239B00E35831009B6871
:102AC000007C984797E76B469E1D84239B00E35844
:102AD00031005B68007C98478DE76B469E1D842320
:102AE0009B00E35831009B69007C984783E70123F2
:102AF000A355D7E66A46961DDB6A30009847022345
:102B0000437078E70222425443600021FFF78EFDB4
:102B1000200000F0FDF8C5E6143D00085C0100202F
:102B20003C3D00085C3D0008FE2370B55B00C35CC3
:102B300004000D00032B10D10B79022B0DD8852337
:102B40009B00C3589B689847EB88002B01D000205E
:102B500070BD200000F0DCF8F9E78021200000F0D3
:102B60008FFE0021200000F08BFEF0E760230A7842
:102B700070B5134005000C00202B06D1F533FF3350
:102B8000C3589B689847002070BD8A886378D1B28B
:102B9000012B34D0002B17D0032BF4D1FA33FF33A1
:102BA000C35C022B30D0032B3FD16388002B03D1B1
:102BB0004B0601D000F064FE85239B00EB582100FA
:102BC0009B68280098472CE0FE235B00C35C022B27
:102BD0001AD0032B29D17F240C40240113062DD4B5
:102BE0000534FF340419280000F06AFE431E9841A2
:102BF000022220602100280000F06CF8C3E7FE23C9
:102C00005B00C35C022B05D14B06BCD0280000F052
:102C100037FEB8E7032B08D16388002BB3D14B06EE
:102C20000FD1280000F074F8ADE78021280000F0F3
:102C300027FE0021280000F023FEA4E71434041925
:102C4000D1E700F02DFEB7E70B7803704B784370A7
:102C5000CA788B7812029B1843804A790B7912024A
:102C60009B188380CA798B7912029B18C3807047A6
:102C700010B50400802100F003FE0021200000F0C8
:102C8000FFFD10BD30B5002820D00378002B1ED0EA
:102C900004000023013425780133DBB2002DF9D183
:102CA0005B000233DCB2138003230C704B7004789A
:102CB000002C0BD00025013B5A1CD2B2CC54013061
:102CC0008D5404780233DBB2002CF5D130BD0224E0
:102CD0000223E8E71300FA2210B5022452008450C0
:102CE0000A008361C361002100F012FE002010BDC4
:102CF00010B513000A00002100F00AFE002010BDEC
:102D000010B513000A00002100F012FE002010BDD3
:102D1000FA23042210B55B00C250002100230022D8
:102D200000F0F6FD002010BDFA23052210B55B006F
:102D3000C25000210023002200F0FAFD002010BD47
:102D40000222F0B5C646474E00B5F369012413438D
:102D5000F361454B09329A62FA2280259200DA62C9
:102D6000DA686D022243DA601A68032122431A608E
:102D70003E4B00221D601020FDF76CFB00223C4BF7
:102D800004275A701A70DA709A705A711A71DA71CF
:102D90009A715A721A72DA729A725A731A73DA73D1
:102DA0009A735A741A74DA749A745A751A75DA75B1
:102DB0009A755A761A76DA769A761A775A779A77D1
:102DC000DA778C237269DB03134373619023402607
:102DD00080218020DB05DA6849002243DA60DA6866
:102DE000C0013A43DA60DA6888463243DA60DA686A
:102DF0000A43DA60DA680243DA60DA68154380224F
:102E0000DD60DD68D2022A43DA601A4AD5682543BC
:102E1000D560D568AC4680256146ED000D43D56090
:102E20008025D1686D010D43D560D56841462843A2
:102E3000D0601148C5682C43C460C4683C43C4607A
:102E40008020DC6840032043D860D0683843D060DD
:102E5000D3681943D16013683343136004BC9046B0
:102E6000F0BDC046001002400004004000E100E058
:102E70007C01002000040048001400480122054B9A
:102E800019690A4204D004490A7019699143196109
:102E90007047C046000400405D010020F8B5574669
:102EA0004E464546DE462D4BE0B598461D002C4B60
:102EB0002C4C99462C4B01269A46082301279B4609
:102EC00010E0002B09D1530043445978002904D164
:102ED0005F700C2A3ED00D2A2FD0102E24D008343B
:102EE000023501362368A08819693B0083401940E8
:102EF000C1402B78721E5B000B43DBB22B70FF2BA3
:102F0000DFD1520042445378002BE6D000235370A7
:102F1000E379002BE1D04B465B78002BDDD0042316
:102F20004A469370102EDAD14A46002313703CBCF7
:102F300090469946A246AB46F8BD4B465B785A424E
:102F400053414A46537053465A465B695340524672
:102F50005361C4E700F05AF8C1E7C0467C01002085
:102F60005D010020743D00080004004800487047DF
:102F70007C010020034B9878002801D0421E9A70F3
:102F80007047C0465D0100208023104A9B00916974
:102F90000B43936180220E4B120619690A431A6192
:102FA000602203219A625A690A435A610122196810
:102FB0000A4202D019680A431A600121044A936840
:102FC0000B43936013681942FCD070470010024015
:102FD0000024014004210B4A93680B43936013685B
:102FE0001942FCD00421106C064A80B213681942C1
:102FF000FCD0136C04499BB200091B0908704B708C
:103000007047C046002401409C010020064A137806
:1030100059424B41DBB213701378002B02D00023CE
:10302000537093707047C04660010020F0B546466B
:10303000D6464F4688460421C0B506004A4A9368E2
:103040000B43936013681942FCD00421106C464A6C
:1030500080B213681942FCD0136C444A9BB21178B9
:1030600052781B099A1A08230009401A80B2011DE0
:1030700089B28B429B4192B21840131D9BB204B29D
:10308000082B55D917B23A4D2B786878002B3DD1D3
:10309000A97840B249B2201A03B2521AD81712B214
:1030A000D11799461B184340501848401BB200B234
:1030B0009246834202DD0200180013001B115A00E1
:1030C0009B18181800B20A2835DC231C7F2C00DD61
:1030D0007F231BB2391C7F2F00DD7F2109B21A1C10
:1030E000803302DA80235B421A1C52B26A700B1CD6
:1030F000803101DA80235B425BB2AB7032704246B2
:1031000013701CBC90469946A246F0BD43B21E21E6
:1031100020009946FDF782F8484404B2A8781E21A1
:1031200043B238009946FDF779F8484407B2CCE736
:1031300000270022A7E70A21C000FDF76FF84B46E1
:103140000700D8003900FDF769F86C78390064B2DF
:103150000419A87824B243B299465346D800FDF723
:103160005DF8484407B2B0E7002401409C0100200C
:103170006001002010B598B0302200210CA800F0AA
:10318000A5FD1022002101A800F0A0FD18220021B9
:1031900005A800F09BFD20230BA80B931F3B139366
:1031A000FEF714FD0723002401930121043B01A82D
:1031B000029303940494FEF7A1FF802305A89B02C9
:1031C00005930A94FFF7A4F818B010BDF0B5DE46D9
:1031D000574645464E46E0B58DB0FDF71DF9FFF761
:1031E000C9FF00F03FFAFFF7ABFDFFF7CDFEFFF799
:1031F000F1FE00231D4D029309AF14242B78002B00
:1032000000D1FEE7013CFFF749FE002CF6D1029BFE
:10321000002B2FD0FFF7AAFE02230993C27F0223BF
:10322000002A02D0013B7B700323427F002A15D085
:103230007B7008ABD91C981CFFF7F8FE08AB9B7895
:103240000422BB7008ABDB7839000948FB70FFF73C
:103250009FF90122029B53400293CEE7FFF78AFEBB
:103260000028E6D002227B781343E1E75D010020CD
:10327000A0010020FFF77AFE092204000021380097
:1032800000F024FD01233B706378002B00D16BE13B
:10329000C34B9B79002B00D166E1FB700F23032108
:1032A00002220793013B0693013B1E00013B05935D
:1032B000013B0493013B0393013B9A46013B994632
:1032C000013B9846013B9C46013B0193013B009327
:1032D000033BE07800281AD0B148807B002816D044
:1032E000FB18D870019813000A00009900906046FE
:1032F00001900398C446C846D1468246049803907C
:10330000059805960490069806000798069060793F
:10331000002818D0A248807D002814D0FB18D8704F
:10332000019813000A0000990090604601900398EC
:10333000C446C846D146824604980390059805962F
:10334000049006980600E079002816D09448807F03
:10335000002812D0FB18D870019813000A000099B9
:103360000090604601900398C446C846D146824604
:1033700004980390059805960490607A002818D068
:10338000262083465E468648805D002811D0FB18C3
:10339000D870019813000A000099009060460190CF
:1033A0000398C446C846D1468246049803900598BF
:1033B00004900A208346A34458464078002816D03B
:1033C0002E2083465E467648805D00280FD0FB188D
:1033D000D870019813000A0000990090604601908F
:1033E0000398C446C846D146824604980390607B41
:1033F000002814D0362083465E466948805D002848
:103400000DD0FB18D870019813000A0000990090A5
:10341000604601900398C446C846D14682460E20B5
:103420008346A34458464078002812D03E20834665
:103430005E465B48805D00280BD0FB18D870019871
:1034400013000A00009900906046C446C846D14661
:103450000190607C002811D0462082465646504894
:10346000805D00280AD0FB18D870019813000A006C
:10347000009900906046C446C846019012208146DB
:10348000A14448464078002810D04E2081464E4640
:103490004348805D002809D0FB18D87001981300BC
:1034A0000A00009900906046C4460190607D0028A3
:1034B0000FD05620804646463948805D002808D007
:1034C000FB18D870019813000A000099009060461C
:1034D000019016208446A4446046407800280DD010
:1034E0005E20844666462E48805D002806D0FB1884
:1034F000D870019813000A0000990090667E002E93
:1035000009D066262648865D002E04D0FB18DE70A2
:1035100013000A00009920001A304078002808D0D3
:103520006E201F4E305C002803D0FB18D8701300AB
:103530000A00617F002907D076201949095C00291B
:1035400002D0FB18D9701300E27F002A06D07E213A
:10355000134A525C002A01D0FB18DA7009223900A4
:103560001048FFF715F874E60E220792013A06920A
:10357000013A1600013A0592013A0492013A039287
:10358000013A9246013A9146013A9046013A9446F0
:10359000013A0192013A009200230221023A98E690
:1035A000743D0008A00100207047C04601220A4B6C
:1035B00082B099691143996199690A40802100920A
:1035C000009ADA6949050A43DA61DB690B40019325
:1035D000019B02B07047C046001002407047C046D1
:1035E000FEE7C0467047C0467047C04610B5FCF7BE
:1035F00023FF10BD10B50248FDF7A6FD10BDC04663
:10360000C40300200121114B11481A680A431A60B3
:103610005A6802405A601A680E4802401A601A68D6
:103620000D4802401A605A680C4802400F205A6048
:10363000DA6A8243DA621A6B094802401A635A6BEB
:103640008A435A6300229A607047C04600100240C5
:103650000CB8FF08FFFFF6FEFFFFFBFFFFFFC0FFF8
:103660002CFEFFFF10B50E4C00220E492000FEF785
:10367000A5FF002810D10C492000FEF7B9FF002853
:1036800007D12000FEF7BEFF002801D0FFF78CFF16
:1036900010BDFFF789FFF4E7FFF786FFEBE7C046B1
:1036A000A001002024010020B400002000B50D4B33
:1036B000026883B09A4201D003B000BD80200A4A5C
:1036C0000004D1690143D161D36900210340019312
:1036D00000221F20019BFCF7BDFE1F20FCF7E6FE29
:1036E000EAE7C046005C004000100240010087236A
:1036F00010B59B00ED31FF31C058FEF79FFF10BDA4
:10370000CB005B1A9B00C3181933FF331A68872359
:1037100010B59B00C058FEF7C5FF10BDCB005B1A6B
:103720009B00C3189A6B872310B59B00C058FEF707
:10373000F5FF10BD872310B59B00C058FFF788F830
:1037400010BDC046836870B50400022B01D0FFF79E
:103750002BFF8725AD0001216059FFF761F8605903
:10376000FFF73AF870BDC046872310B504009B00F0
:10377000C058FFF759F8A369002B04D00621024A6C
:1037800013690B43136110BD00ED00E0836910B5B0
:103790000400002B06D00621054A13698B431361F0
:1037A000FFF7E8FC87239B00E058FFF749F810BDBE
:1037B00000ED00E0872370B5040016489B00C4505C
:1037C0000433E050144B036008234360063B8360DE
:1037D000036100238361C3610362FCF78DFE00284F
:1037E00001D0FFF7E1FE8825AD00605918230022C3
:1037F0000021FEF7CBF96059582300228021FEF703
:10380000C5F9802360595B0000228121FEF7BEF9D3
:10381000002070BDC4030020005C004088239B0092
:1038200010B5C058FCF788FF032802D8024B185C7B
:1038300010BD0220FCE7C0460C3E000810B5140085
:103840001A0088239B00C0582300FCF799FF032827
:1038500002D8024B185C10BD0220FCE70C3E0008A9
:1038600088239B0010B5C058FDF708F9032802D83B
:10387000024B185C10BD0220FCE7C0460C3E00085D
:1038800088239B0010B5C058FEF7BEF8032802D865
:10389000024B185C10BD0220FCE7C0460C3E00083D
:1038A00088239B0010B5C058FEF70CF9032802D8F6
:1038B000024B185C10BD0220FCE7C0460C3E00081D
:1038C00088234AB29B00C358002A07DBCA00511A5A
:1038D00089005B180B33FF33187870477F22114043
:1038E000CA00511A89005B182A331878F5E7C046D8
:1038F00088239B0010B5C058FCF728FF032802D886
:10390000024B185C10BD0220FCE7C0460C3E0008CC
:1039100010B58824A4000059FDF79AFA032802D8AC
:10392000024B185C10BD0220FCE7C0460C3E0008AC
:1039300010B58824A4000059FDF76AF9032802D8BD
:10394000024B185C10BD0220FCE7C0460C3E00088C
:1039500000487047640100207047C04612230148A8
:103960000B807047F0000020042302480B801430C5
:103970007047C046F000002010B5044C0A0004480F
:103980002100FFF77FF9200010BDC046E4050020AC
:10399000103E000810B5044C0A0004482100FFF74F
:1039A00071F9200010BDC046E4050020243E000847
:1039B00010B5044C0A0004482100FFF763F9200009
:1039C00010BDC046E40500203C3E000810B5044C84
:1039D0000A0004482100FFF755F9200010BDC04639
:1039E000E4050020483E00081A2310B50B80804BE8
:1039F0001A68804B1B68D318002B02D17E48183000
:103A000010BD7E4A180F1268C1B2092879D97A48C8
:103A1000373181760021C1761901090FCCB209290D
:103A200079D80021417719023034090F0477CCB2DC
:103A3000092979D80021C17719033034090F847717
:103A4000CCB2092979D820213034445421210024D2
:103A500044541904090FCCB2092979D822213034F1
:103A600044542321002444541905090FCCB20929D8
:103A700079D8242130344454252100244454190693
:103A8000090FCCB2092979D8262130344454272192
:103A90000024445418390B40D9B2092B79D8282373
:103AA0003031C15429230021C154110FCBB209294F
:103AB00079D82A21303343542B230021C1541301D8
:103AC0001B0FD9B2092B79D82C233031C1542D23A7
:103AD0000021C15413021B0FD9B2092B79D82E2310
:103AE0003031C1542F230021C15413031B0FDAB20C
:103AF000092B79D830233032C25431230022C254EA
:103B00007DE73D48303181760021C1761901090FEA
:103B1000CCB2092985D90021417719023734090F20
:103B20000477CCB2092985D90021C177190337342C
:103B3000090F8477CCB2092985D920213734445420
:103B40002121002444541904090FCCB2092985D934
:103B50002221373444542321002444541905090FE9
:103B6000CCB2092985D92421373444542521002495
:103B700044541906090FCCB2092985D926213734B6
:103B8000445427210024445418390B40D9B2092B3E
:103B900085D928233731C15429230021C154110F5D
:103BA000CBB2092985D92A21373343542B2300214D
:103BB000C15413011B0FD9B2092B85D92C233731DE
:103BC000C1542D230021C15413021B0FD9B2092B5C
:103BD00085D92E233731C1542F230021C15413031B
:103BE0001B0FDAB2092B85D930233732C25484E750
:103BF000ACF7FF1FB4F7FF1FF0000020B0F7FF1F66
:103C00001348854613480168090E134A914205D1AD
:103C100012481349016013481349016013481449BD
:103C2000144A002302E0D458C4500433C4188C4210
:103C3000F9D3114A114C002301E013600432A2426F
:103C4000FBD3FFF7DFFC00F01DF8FFF7BFFAFEE73C
:103C500000180020040000001F000000181002409F
:103C600001000000000001400000000000000020F2
:103C700040010020603E000840010020E4070020D1
:103C8000FEE7000070B500260C4D0D4C641BA4101F
:103C9000A64209D1002600F021F80A4D0A4C641B07
:103CA000A410A64205D170BDB300EB589847013669
:103CB000EEE7B300EB5898470136F2E7583E0008AC
:103CC000583E0008583E00085C3E000803001218E9
:103CD000934200D1704719700133F9E7F8B5C04637
:103CE000F8BC08BC9E467047F8B5C046F8BC08BC96
:043CF0009E46704735
:103CF40002030405060708090A0B0C0D0E0F101029
:103D04000102030405060708090A0B0C0D0E0F1027
:103D1400E428000810290008942800083E29000817
:103D240094280008862800085029000894280008D0
:103D340060290008AA28000894280008622A0008BC
:103D4400462A0008362A0008942800089428000807
:103D54001C2A0008DA290008C62A0008B22A00082A
:103D64009E2A00088A2A0008762A0008DA2A00080F
:103D74000000004800001E010000004801001F016F
:103D8400000000480300200100000048040007016F
:103D94000000004807000901000000480800210154
:103DA40000000048090005000004004800001C0051
:103DB4000004004805001401000400480600000146
:103DC4000004004807000001001400480000150129
:103DD4000014004801001300000000480A0000001D
:103DE4000004004801000000000400480400000032
:103DF4000000000000000000010203040607080997
:103E040000000000010203040002010253544D6942
:103E140063726F656C656374726F6E6963730000BF
:103E240053544D33322048756D616E20696E74654C
:103E3400726661636500000048494420436F6E6602
:103E44006967000048494420496E7465726661637D
:043E54006500000005
:043E5800E900000875
:043E5C00C100000899
:103E600009022200010100E0320904000001030000
:103E700000000921110100012275000705810309D5
:103E8000000500000A0600020000004001000000DA
:103E900005010906A1018501050719E029E71500BB
:103EA0002501750195088102950175088103950525
:103EB0007501050819012905910295017503910302
:103EC0009506750815002565050719002965810007
:103ED000C005010902A1010901A100850205091916
:103EE00001290315002501950375018102950175CE
:103EF0000581030501093009311581257F75089574
:103F0000028102C0C00000000921110100012275D8
:103F100000000000652500084525000881240008F0
:103F20000000000000000000612400080000000004
:103F30000000000000000000000000005524000800
:103F400055240008552400087124000800127A0046
:103F5000120100020000004083042B5700020102FE
:103F600003010000040309041A030000000000001C
:103F70000000000000000000000000000000000041
:103F8000000000005D39000869390008793900082F
:103F900095390008E9390008B1390008CD39000821
:0400000508003C01B2
:00000001FF
